{
  "contractName": "MedicalRecord",
  "abi": [
    {
      "anonymous": false,
      "inputs": [
        {
          "indexed": false,
          "internalType": "string",
          "name": "name",
          "type": "string"
        },
        {
          "indexed": false,
          "internalType": "string",
          "name": "RRN",
          "type": "string"
        },
        {
          "indexed": false,
          "internalType": "string",
          "name": "KCD",
          "type": "string"
        },
        {
          "indexed": false,
          "internalType": "string",
          "name": "date",
          "type": "string"
        },
        {
          "indexed": false,
          "internalType": "string",
          "name": "receiptNumber",
          "type": "string"
        },
        {
          "indexed": false,
          "internalType": "uint256",
          "name": "totalOop",
          "type": "uint256"
        },
        {
          "indexed": false,
          "internalType": "uint256",
          "name": "totalPcc",
          "type": "uint256"
        },
        {
          "indexed": false,
          "internalType": "uint256",
          "name": "totalFoop",
          "type": "uint256"
        },
        {
          "indexed": false,
          "internalType": "uint256",
          "name": "nonReimbursement",
          "type": "uint256"
        },
        {
          "components": [
            {
              "internalType": "string",
              "name": "category",
              "type": "string"
            },
            {
              "internalType": "string",
              "name": "date",
              "type": "string"
            },
            {
              "internalType": "string",
              "name": "treatCode",
              "type": "string"
            },
            {
              "internalType": "string",
              "name": "description",
              "type": "string"
            },
            {
              "internalType": "uint256",
              "name": "price",
              "type": "uint256"
            },
            {
              "internalType": "uint256",
              "name": "oop",
              "type": "uint256"
            },
            {
              "internalType": "uint256",
              "name": "pcc",
              "type": "uint256"
            },
            {
              "internalType": "uint256",
              "name": "foop",
              "type": "uint256"
            },
            {
              "internalType": "uint256",
              "name": "nonReimbursement",
              "type": "uint256"
            }
          ],
          "indexed": false,
          "internalType": "struct MedicalRecord.TreatmentDetail[]",
          "name": "treatDetails",
          "type": "tuple[]"
        }
      ],
      "name": "MedicalRecordSet",
      "type": "event"
    },
    {
      "inputs": [],
      "name": "medicalRecordsCount",
      "outputs": [
        {
          "internalType": "uint256",
          "name": "",
          "type": "uint256"
        }
      ],
      "stateMutability": "view",
      "type": "function",
      "constant": true
    },
    {
      "inputs": [
        {
          "internalType": "string",
          "name": "_name",
          "type": "string"
        },
        {
          "internalType": "string",
          "name": "_RRN",
          "type": "string"
        },
        {
          "internalType": "string",
          "name": "_KCD",
          "type": "string"
        },
        {
          "internalType": "string",
          "name": "_date",
          "type": "string"
        },
        {
          "internalType": "string",
          "name": "_receiptNumber",
          "type": "string"
        },
        {
          "internalType": "uint256",
          "name": "_totalOop",
          "type": "uint256"
        },
        {
          "internalType": "uint256",
          "name": "_totalPcc",
          "type": "uint256"
        },
        {
          "internalType": "uint256",
          "name": "_totalFoop",
          "type": "uint256"
        },
        {
          "internalType": "uint256",
          "name": "_nonReimbursement",
          "type": "uint256"
        },
        {
          "components": [
            {
              "internalType": "string",
              "name": "category",
              "type": "string"
            },
            {
              "internalType": "string",
              "name": "date",
              "type": "string"
            },
            {
              "internalType": "string",
              "name": "treatCode",
              "type": "string"
            },
            {
              "internalType": "string",
              "name": "description",
              "type": "string"
            },
            {
              "internalType": "uint256",
              "name": "price",
              "type": "uint256"
            },
            {
              "internalType": "uint256",
              "name": "oop",
              "type": "uint256"
            },
            {
              "internalType": "uint256",
              "name": "pcc",
              "type": "uint256"
            },
            {
              "internalType": "uint256",
              "name": "foop",
              "type": "uint256"
            },
            {
              "internalType": "uint256",
              "name": "nonReimbursement",
              "type": "uint256"
            }
          ],
          "internalType": "struct MedicalRecord.TreatmentDetail[]",
          "name": "_treatDetails",
          "type": "tuple[]"
        }
      ],
      "name": "addMedicalRecord",
      "outputs": [],
      "stateMutability": "nonpayable",
      "type": "function"
    },
    {
      "inputs": [
        {
          "internalType": "string",
          "name": "_receiptNumber",
          "type": "string"
        }
      ],
      "name": "getMedicalRecord",
      "outputs": [
        {
          "components": [
            {
              "internalType": "string",
              "name": "name",
              "type": "string"
            },
            {
              "internalType": "string",
              "name": "RRN",
              "type": "string"
            },
            {
              "internalType": "string",
              "name": "KCD",
              "type": "string"
            },
            {
              "internalType": "string",
              "name": "date",
              "type": "string"
            },
            {
              "internalType": "string",
              "name": "receiptNumber",
              "type": "string"
            },
            {
              "internalType": "uint256",
              "name": "totalOop",
              "type": "uint256"
            },
            {
              "internalType": "uint256",
              "name": "totalPcc",
              "type": "uint256"
            },
            {
              "internalType": "uint256",
              "name": "totalFoop",
              "type": "uint256"
            },
            {
              "internalType": "uint256",
              "name": "nonReimbursement",
              "type": "uint256"
            },
            {
              "components": [
                {
                  "internalType": "string",
                  "name": "category",
                  "type": "string"
                },
                {
                  "internalType": "string",
                  "name": "date",
                  "type": "string"
                },
                {
                  "internalType": "string",
                  "name": "treatCode",
                  "type": "string"
                },
                {
                  "internalType": "string",
                  "name": "description",
                  "type": "string"
                },
                {
                  "internalType": "uint256",
                  "name": "price",
                  "type": "uint256"
                },
                {
                  "internalType": "uint256",
                  "name": "oop",
                  "type": "uint256"
                },
                {
                  "internalType": "uint256",
                  "name": "pcc",
                  "type": "uint256"
                },
                {
                  "internalType": "uint256",
                  "name": "foop",
                  "type": "uint256"
                },
                {
                  "internalType": "uint256",
                  "name": "nonReimbursement",
                  "type": "uint256"
                }
              ],
              "internalType": "struct MedicalRecord.TreatmentDetail[]",
              "name": "treatDetails",
              "type": "tuple[]"
            },
            {
              "internalType": "uint256",
              "name": "treatDetailsCount",
              "type": "uint256"
            }
          ],
          "internalType": "struct MedicalRecord.MedicalRecordData",
          "name": "",
          "type": "tuple"
        }
      ],
      "stateMutability": "view",
      "type": "function",
      "constant": true
    },
    {
      "inputs": [],
      "name": "getMedicalRecords",
      "outputs": [
        {
          "components": [
            {
              "internalType": "string",
              "name": "name",
              "type": "string"
            },
            {
              "internalType": "string",
              "name": "RRN",
              "type": "string"
            },
            {
              "internalType": "string",
              "name": "KCD",
              "type": "string"
            },
            {
              "internalType": "string",
              "name": "date",
              "type": "string"
            },
            {
              "internalType": "string",
              "name": "receiptNumber",
              "type": "string"
            },
            {
              "internalType": "uint256",
              "name": "totalOop",
              "type": "uint256"
            },
            {
              "internalType": "uint256",
              "name": "totalPcc",
              "type": "uint256"
            },
            {
              "internalType": "uint256",
              "name": "totalFoop",
              "type": "uint256"
            },
            {
              "internalType": "uint256",
              "name": "nonReimbursement",
              "type": "uint256"
            },
            {
              "components": [
                {
                  "internalType": "string",
                  "name": "category",
                  "type": "string"
                },
                {
                  "internalType": "string",
                  "name": "date",
                  "type": "string"
                },
                {
                  "internalType": "string",
                  "name": "treatCode",
                  "type": "string"
                },
                {
                  "internalType": "string",
                  "name": "description",
                  "type": "string"
                },
                {
                  "internalType": "uint256",
                  "name": "price",
                  "type": "uint256"
                },
                {
                  "internalType": "uint256",
                  "name": "oop",
                  "type": "uint256"
                },
                {
                  "internalType": "uint256",
                  "name": "pcc",
                  "type": "uint256"
                },
                {
                  "internalType": "uint256",
                  "name": "foop",
                  "type": "uint256"
                },
                {
                  "internalType": "uint256",
                  "name": "nonReimbursement",
                  "type": "uint256"
                }
              ],
              "internalType": "struct MedicalRecord.TreatmentDetail[]",
              "name": "treatDetails",
              "type": "tuple[]"
            },
            {
              "internalType": "uint256",
              "name": "treatDetailsCount",
              "type": "uint256"
            }
          ],
          "internalType": "struct MedicalRecord.MedicalRecordData[]",
          "name": "",
          "type": "tuple[]"
        }
      ],
      "stateMutability": "view",
      "type": "function",
      "constant": true
    }
  ],
  "bytecode": "0x608060405234801561001057600080fd5b5061239b806100206000396000f3fe608060405234801561001057600080fd5b506004361061004c5760003560e01c80630730760f146100515780636aea20d31461006d578063cc368d531461008b578063e963bc96146100bb575b600080fd5b61006b6004803603810190610066919061152f565b6100d9565b005b61007561040e565b6040516100829190611abd565b60405180910390f35b6100a560048036038101906100a09190611adf565b610ae0565b6040516100b29190611c3a565b60405180910390f35b6100c36110ff565b6040516100d09190611c6b565b60405180910390f35b6040518060400160405280600381526020017f4a303900000000000000000000000000000000000000000000000000000000008152508051906020012088805190602001201461015e576040517f08c379a000000000000000000000000000000000000000000000000000000000815260040161015590611ce3565b60405180910390fd5b6000808760405161016f9190611d3f565b9081526020016040518091039020600001805461018b90611d85565b9050146101cd576040517f08c379a00000000000000000000000000000000000000000000000000000000081526004016101c490611e02565b60405180910390fd5b600080876040516101de9190611d3f565b908152602001604051809103902090508a8160000190816101ff9190611fce565b50898160010190816102119190611fce565b50888160020190816102239190611fce565b50878160030190816102359190611fce565b50868160040190816102479190611fce565b5085816005018190555084816006018190555083816007018190555082816008018190555060005b8251811015610360578160090183828151811061028f5761028e6120a0565b5b6020026020010151908060018154018082558091505060019003906000526020600020906009020160009091909190915060008201518160000190816102d59190611fce565b5060208201518160010190816102eb9190611fce565b5060408201518160020190816103019190611fce565b5060608201518160030190816103179190611fce565b506080820151816004015560a0820151816005015560c0820151816006015560e08201518160070155610100820151816008015550508080610358906120fe565b91505061026f565b50815181600a018190555060028790806001815401808255809150506001900390600052602060002001600090919091909150908161039f9190611fce565b50600160008154809291906103b3906120fe565b91905055507fab6fb1d1889630ca2a543375ed4981bfdd33261754f524d5fafd7490ebfcc1de8b8b8b8b8b8b8b8b8b8b6040516103f99a99989796959493929190612205565b60405180910390a15050505050505050505050565b6060600060015467ffffffffffffffff81111561042e5761042d61118e565b5b60405190808252806020026020018201604052801561046757816020015b610454611105565b81526020019060019003908161044c5790505b50905060005b600280549050811015610ad8576000600282815481106104905761048f6120a0565b5b906000526020600020016040516104a7919061234e565b9081526020016040518091039020604051806101600160405290816000820180546104d190611d85565b80601f01602080910402602001604051908101604052809291908181526020018280546104fd90611d85565b801561054a5780601f1061051f5761010080835404028352916020019161054a565b820191906000526020600020905b81548152906001019060200180831161052d57829003601f168201915b5050505050815260200160018201805461056390611d85565b80601f016020809104026020016040519081016040528092919081815260200182805461058f90611d85565b80156105dc5780601f106105b1576101008083540402835291602001916105dc565b820191906000526020600020905b8154815290600101906020018083116105bf57829003601f168201915b505050505081526020016002820180546105f590611d85565b80601f016020809104026020016040519081016040528092919081815260200182805461062190611d85565b801561066e5780601f106106435761010080835404028352916020019161066e565b820191906000526020600020905b81548152906001019060200180831161065157829003601f168201915b5050505050815260200160038201805461068790611d85565b80601f01602080910402602001604051908101604052809291908181526020018280546106b390611d85565b80156107005780601f106106d557610100808354040283529160200191610700565b820191906000526020600020905b8154815290600101906020018083116106e357829003601f168201915b5050505050815260200160048201805461071990611d85565b80601f016020809104026020016040519081016040528092919081815260200182805461074590611d85565b80156107925780601f1061076757610100808354040283529160200191610792565b820191906000526020600020905b81548152906001019060200180831161077557829003601f168201915b505050505081526020016005820154815260200160068201548152602001600782015481526020016008820154815260200160098201805480602002602001604051908101604052809291908181526020016000905b82821015610a9557838290600052602060002090600902016040518061012001604052908160008201805461081c90611d85565b80601f016020809104026020016040519081016040528092919081815260200182805461084890611d85565b80156108955780601f1061086a57610100808354040283529160200191610895565b820191906000526020600020905b81548152906001019060200180831161087857829003601f168201915b505050505081526020016001820180546108ae90611d85565b80601f01602080910402602001604051908101604052809291908181526020018280546108da90611d85565b80156109275780601f106108fc57610100808354040283529160200191610927565b820191906000526020600020905b81548152906001019060200180831161090a57829003601f168201915b5050505050815260200160028201805461094090611d85565b80601f016020809104026020016040519081016040528092919081815260200182805461096c90611d85565b80156109b95780601f1061098e576101008083540402835291602001916109b9565b820191906000526020600020905b81548152906001019060200180831161099c57829003601f168201915b505050505081526020016003820180546109d290611d85565b80601f01602080910402602001604051908101604052809291908181526020018280546109fe90611d85565b8015610a4b5780601f10610a2057610100808354040283529160200191610a4b565b820191906000526020600020905b815481529060010190602001808311610a2e57829003601f168201915b5050505050815260200160048201548152602001600582015481526020016006820154815260200160078201548152602001600882015481525050815260200190600101906107e8565b505050508152602001600a82015481525050828281518110610aba57610ab96120a0565b5b60200260200101819052508080610ad0906120fe565b91505061046d565b508091505090565b610ae8611105565b600082604051610af89190611d3f565b908152602001604051809103902060405180610160016040529081600082018054610b2290611d85565b80601f0160208091040260200160405190810160405280929190818152602001828054610b4e90611d85565b8015610b9b5780601f10610b7057610100808354040283529160200191610b9b565b820191906000526020600020905b815481529060010190602001808311610b7e57829003601f168201915b50505050508152602001600182018054610bb490611d85565b80601f0160208091040260200160405190810160405280929190818152602001828054610be090611d85565b8015610c2d5780601f10610c0257610100808354040283529160200191610c2d565b820191906000526020600020905b815481529060010190602001808311610c1057829003601f168201915b50505050508152602001600282018054610c4690611d85565b80601f0160208091040260200160405190810160405280929190818152602001828054610c7290611d85565b8015610cbf5780601f10610c9457610100808354040283529160200191610cbf565b820191906000526020600020905b815481529060010190602001808311610ca257829003601f168201915b50505050508152602001600382018054610cd890611d85565b80601f0160208091040260200160405190810160405280929190818152602001828054610d0490611d85565b8015610d515780601f10610d2657610100808354040283529160200191610d51565b820191906000526020600020905b815481529060010190602001808311610d3457829003601f168201915b50505050508152602001600482018054610d6a90611d85565b80601f0160208091040260200160405190810160405280929190818152602001828054610d9690611d85565b8015610de35780601f10610db857610100808354040283529160200191610de3565b820191906000526020600020905b815481529060010190602001808311610dc657829003601f168201915b505050505081526020016005820154815260200160068201548152602001600782015481526020016008820154815260200160098201805480602002602001604051908101604052809291908181526020016000905b828210156110e6578382906000526020600020906009020160405180610120016040529081600082018054610e6d90611d85565b80601f0160208091040260200160405190810160405280929190818152602001828054610e9990611d85565b8015610ee65780601f10610ebb57610100808354040283529160200191610ee6565b820191906000526020600020905b815481529060010190602001808311610ec957829003601f168201915b50505050508152602001600182018054610eff90611d85565b80601f0160208091040260200160405190810160405280929190818152602001828054610f2b90611d85565b8015610f785780601f10610f4d57610100808354040283529160200191610f78565b820191906000526020600020905b815481529060010190602001808311610f5b57829003601f168201915b50505050508152602001600282018054610f9190611d85565b80601f0160208091040260200160405190810160405280929190818152602001828054610fbd90611d85565b801561100a5780601f10610fdf5761010080835404028352916020019161100a565b820191906000526020600020905b815481529060010190602001808311610fed57829003601f168201915b5050505050815260200160038201805461102390611d85565b80601f016020809104026020016040519081016040528092919081815260200182805461104f90611d85565b801561109c5780601f106110715761010080835404028352916020019161109c565b820191906000526020600020905b81548152906001019060200180831161107f57829003601f168201915b505050505081526020016004820154815260200160058201548152602001600682015481526020016007820154815260200160088201548152505081526020019060010190610e39565b505050508152602001600a820154815250509050919050565b60015481565b60405180610160016040528060608152602001606081526020016060815260200160608152602001606081526020016000815260200160008152602001600081526020016000815260200160608152602001600081525090565b6000604051905090565b600080fd5b600080fd5b600080fd5b600080fd5b6000601f19601f8301169050919050565b7f4e487b7100000000000000000000000000000000000000000000000000000000600052604160045260246000fd5b6111c68261117d565b810181811067ffffffffffffffff821117156111e5576111e461118e565b5b80604052505050565b60006111f861115f565b905061120482826111bd565b919050565b600067ffffffffffffffff8211156112245761122361118e565b5b61122d8261117d565b9050602081019050919050565b82818337600083830152505050565b600061125c61125784611209565b6111ee565b90508281526020810184848401111561127857611277611178565b5b61128384828561123a565b509392505050565b600082601f8301126112a05761129f611173565b5b81356112b0848260208601611249565b91505092915050565b6000819050919050565b6112cc816112b9565b81146112d757600080fd5b50565b6000813590506112e9816112c3565b92915050565b600067ffffffffffffffff82111561130a5761130961118e565b5b602082029050602081019050919050565b600080fd5b600080fd5b600080fd5b6000610120828403121561134157611340611320565b5b61134c6101206111ee565b9050600082013567ffffffffffffffff81111561136c5761136b611325565b5b6113788482850161128b565b600083015250602082013567ffffffffffffffff81111561139c5761139b611325565b5b6113a88482850161128b565b602083015250604082013567ffffffffffffffff8111156113cc576113cb611325565b5b6113d88482850161128b565b604083015250606082013567ffffffffffffffff8111156113fc576113fb611325565b5b6114088482850161128b565b606083015250608061141c848285016112da565b60808301525060a0611430848285016112da565b60a08301525060c0611444848285016112da565b60c08301525060e0611458848285016112da565b60e08301525061010061146d848285016112da565b6101008301525092915050565b600061148d611488846112ef565b6111ee565b905080838252602082019050602084028301858111156114b0576114af61131b565b5b835b818110156114f757803567ffffffffffffffff8111156114d5576114d4611173565b5b8086016114e2898261132a565b855260208501945050506020810190506114b2565b5050509392505050565b600082601f83011261151657611515611173565b5b813561152684826020860161147a565b91505092915050565b6000806000806000806000806000806101408b8d03121561155357611552611169565b5b60008b013567ffffffffffffffff8111156115715761157061116e565b5b61157d8d828e0161128b565b9a505060208b013567ffffffffffffffff81111561159e5761159d61116e565b5b6115aa8d828e0161128b565b99505060408b013567ffffffffffffffff8111156115cb576115ca61116e565b5b6115d78d828e0161128b565b98505060608b013567ffffffffffffffff8111156115f8576115f761116e565b5b6116048d828e0161128b565b97505060808b013567ffffffffffffffff8111156116255761162461116e565b5b6116318d828e0161128b565b96505060a06116428d828e016112da565b95505060c06116538d828e016112da565b94505060e06116648d828e016112da565b9350506101006116768d828e016112da565b9250506101208b013567ffffffffffffffff8111156116985761169761116e565b5b6116a48d828e01611501565b9150509295989b9194979a5092959850565b600081519050919050565b600082825260208201905092915050565b6000819050602082019050919050565b600081519050919050565b600082825260208201905092915050565b60005b8381101561171c578082015181840152602081019050611701565b8381111561172b576000848401525b50505050565b600061173c826116e2565b61174681856116ed565b93506117568185602086016116fe565b61175f8161117d565b840191505092915050565b611773816112b9565b82525050565b600081519050919050565b600082825260208201905092915050565b6000819050602082019050919050565b60006101208301600083015184820360008601526117c38282611731565b915050602083015184820360208601526117dd8282611731565b915050604083015184820360408601526117f78282611731565b915050606083015184820360608601526118118282611731565b9150506080830151611826608086018261176a565b5060a083015161183960a086018261176a565b5060c083015161184c60c086018261176a565b5060e083015161185f60e086018261176a565b5061010083015161187461010086018261176a565b508091505092915050565b600061188b83836117a5565b905092915050565b6000602082019050919050565b60006118ab82611779565b6118b58185611784565b9350836020820285016118c785611795565b8060005b8581101561190357848403895281516118e4858261187f565b94506118ef83611893565b925060208a019950506001810190506118cb565b50829750879550505050505092915050565b60006101608301600083015184820360008601526119338282611731565b9150506020830151848203602086015261194d8282611731565b915050604083015184820360408601526119678282611731565b915050606083015184820360608601526119818282611731565b9150506080830151848203608086015261199b8282611731565b91505060a08301516119b060a086018261176a565b5060c08301516119c360c086018261176a565b5060e08301516119d660e086018261176a565b506101008301516119eb61010086018261176a565b50610120830151848203610120860152611a0582826118a0565b915050610140830151611a1c61014086018261176a565b508091505092915050565b6000611a338383611915565b905092915050565b6000602082019050919050565b6000611a53826116b6565b611a5d81856116c1565b935083602082028501611a6f856116d2565b8060005b85811015611aab5784840389528151611a8c8582611a27565b9450611a9783611a3b565b925060208a01995050600181019050611a73565b50829750879550505050505092915050565b60006020820190508181036000830152611ad78184611a48565b905092915050565b600060208284031215611af557611af4611169565b5b600082013567ffffffffffffffff811115611b1357611b1261116e565b5b611b1f8482850161128b565b91505092915050565b6000610160830160008301518482036000860152611b468282611731565b91505060208301518482036020860152611b608282611731565b91505060408301518482036040860152611b7a8282611731565b91505060608301518482036060860152611b948282611731565b91505060808301518482036080860152611bae8282611731565b91505060a0830151611bc360a086018261176a565b5060c0830151611bd660c086018261176a565b5060e0830151611be960e086018261176a565b50610100830151611bfe61010086018261176a565b50610120830151848203610120860152611c1882826118a0565b915050610140830151611c2f61014086018261176a565b508091505092915050565b60006020820190508181036000830152611c548184611b28565b905092915050565b611c65816112b9565b82525050565b6000602082019050611c806000830184611c5c565b92915050565b600082825260208201905092915050565b7f4b434420646f6573206e6f74206d617463680000000000000000000000000000600082015250565b6000611ccd601283611c86565b9150611cd882611c97565b602082019050919050565b60006020820190508181036000830152611cfc81611cc0565b9050919050565b600081905092915050565b6000611d19826116e2565b611d238185611d03565b9350611d338185602086016116fe565b80840191505092915050565b6000611d4b8284611d0e565b915081905092915050565b7f4e487b7100000000000000000000000000000000000000000000000000000000600052602260045260246000fd5b60006002820490506001821680611d9d57607f821691505b602082108103611db057611daf611d56565b5b50919050565b7f52656365697074206e756d62657220616c726561647920657869737473000000600082015250565b6000611dec601d83611c86565b9150611df782611db6565b602082019050919050565b60006020820190508181036000830152611e1b81611ddf565b9050919050565b60008190508160005260206000209050919050565b60006020601f8301049050919050565b600082821b905092915050565b600060088302611e847fffffffffffffffffffffffffffffffffffffffffffffffffffffffffffffffff82611e47565b611e8e8683611e47565b95508019841693508086168417925050509392505050565b6000819050919050565b6000611ecb611ec6611ec1846112b9565b611ea6565b6112b9565b9050919050565b6000819050919050565b611ee583611eb0565b611ef9611ef182611ed2565b848454611e54565b825550505050565b600090565b611f0e611f01565b611f19818484611edc565b505050565b5b81811015611f3d57611f32600082611f06565b600181019050611f1f565b5050565b601f821115611f8257611f5381611e22565b611f5c84611e37565b81016020851015611f6b578190505b611f7f611f7785611e37565b830182611f1e565b50505b505050565b600082821c905092915050565b6000611fa560001984600802611f87565b1980831691505092915050565b6000611fbe8383611f94565b9150826002028217905092915050565b611fd7826116e2565b67ffffffffffffffff811115611ff057611fef61118e565b5b611ffa8254611d85565b612005828285611f41565b600060209050601f8311600181146120385760008415612026578287015190505b6120308582611fb2565b865550612098565b601f19841661204686611e22565b60005b8281101561206e57848901518255600182019150602085019450602081019050612049565b8683101561208b5784890151612087601f891682611f94565b8355505b6001600288020188555050505b505050505050565b7f4e487b7100000000000000000000000000000000000000000000000000000000600052603260045260246000fd5b7f4e487b7100000000000000000000000000000000000000000000000000000000600052601160045260246000fd5b6000612109826112b9565b91507fffffffffffffffffffffffffffffffffffffffffffffffffffffffffffffffff820361213b5761213a6120cf565b5b600182019050919050565b6000612151826116e2565b61215b8185611c86565b935061216b8185602086016116fe565b6121748161117d565b840191505092915050565b600082825260208201905092915050565b600061219b82611779565b6121a5818561217f565b9350836020820285016121b785611795565b8060005b858110156121f357848403895281516121d4858261187f565b94506121df83611893565b925060208a019950506001810190506121bb565b50829750879550505050505092915050565b6000610140820190508181036000830152612220818d612146565b90508181036020830152612234818c612146565b90508181036040830152612248818b612146565b9050818103606083015261225c818a612146565b905081810360808301526122708189612146565b905061227f60a0830188611c5c565b61228c60c0830187611c5c565b61229960e0830186611c5c565b6122a7610100830185611c5c565b8181036101208301526122ba8184612190565b90509b9a5050505050505050505050565b600081546122d881611d85565b6122e28186611d03565b945060018216600081146122fd576001811461231257612345565b60ff1983168652811515820286019350612345565b61231b85611e22565b60005b8381101561233d5781548189015260018201915060208101905061231e565b838801955050505b50505092915050565b600061235a82846122cb565b91508190509291505056fea2646970667358221220cc31e50a7d79cf25bd01534e1880bfa2af385bdf21bef67946fa42fa3f3d59e164736f6c634300080f0033",
  "immutableReferences": {},
  "source": "// SPDX-License-Identifier: MIT\npragma solidity ^0.8.15;\n\ncontract MedicalRecord {\n    struct TreatmentDetail {\n        string category;\n        string date;\n        string treatCode;\n        string description;\n        uint256 price;\n        uint256 oop;\n        uint256 pcc;\n        uint256 foop;\n        uint256 nonReimbursement;\n    }\n\n    struct MedicalRecordData {\n        string name;\n        string RRN;\n        string KCD;\n        string date;\n        string receiptNumber;\n        uint256 totalOop;\n        uint256 totalPcc;\n        uint256 totalFoop;\n        uint256 nonReimbursement;\n        TreatmentDetail[] treatDetails;\n        uint256 treatDetailsCount;\n    }\n\n    // attribute\n    string private constant DEFAULT_KCD = \"J09\"; //  RRN \n    mapping(string => MedicalRecordData) private medicalRecords;\n    uint256 public medicalRecordsCount;\n    string[] private medicalRecordKeys; \n    \n    // event\n    event MedicalRecordSet(\n        string name,\n        string RRN,\n        string KCD,\n        string date,\n        string receiptNumber,\n        uint256 totalOop,\n        uint256 totalPcc,\n        uint256 totalFoop,\n        uint256 nonReimbursement,\n        TreatmentDetail[] treatDetails\n    );\n\n    //    \n    function addMedicalRecord(\n        string memory _name,\n        string memory _RRN,\n        string memory _KCD,\n        string memory _date,\n        string memory _receiptNumber,\n        uint256 _totalOop,\n        uint256 _totalPcc,\n        uint256 _totalFoop,\n        uint256 _nonReimbursement,\n        TreatmentDetail[] memory _treatDetails\n    ) public {\n        require(keccak256(bytes(_KCD)) == keccak256(bytes(DEFAULT_KCD)), \"KCD does not match\");\n        require(bytes(medicalRecords[_receiptNumber].name).length == 0, \"Receipt number already exists\");\n\n        MedicalRecordData storage record = medicalRecords[_receiptNumber];\n        record.name = _name;\n        record.RRN = _RRN;\n        record.KCD = _KCD;\n        record.date = _date;\n        record.receiptNumber = _receiptNumber;\n        record.totalOop = _totalOop;\n        record.totalPcc = _totalPcc;\n        record.totalFoop = _totalFoop;\n        record.nonReimbursement = _nonReimbursement;\n\n        for (uint256 i = 0; i < _treatDetails.length; i++) {\n            record.treatDetails.push(_treatDetails[i]);\n        }\n        record.treatDetailsCount = _treatDetails.length;\n        \n        // getter \n\t\t\t\tmedicalRecordKeys.push(_receiptNumber);\n\t\t\t\tmedicalRecordsCount++;\n        \n        emit MedicalRecordSet(_name, _RRN, _KCD, _date, _receiptNumber, _totalOop, _totalPcc, _totalFoop, _nonReimbursement, _treatDetails);\n    }\n  \n\n    function getMedicalRecord(string memory _receiptNumber) public view returns (MedicalRecordData memory) {\n        return medicalRecords[_receiptNumber];\n    }\n    \n    function getMedicalRecords() public view returns (MedicalRecordData[] memory){\n\t\t    MedicalRecordData[] memory records = new MedicalRecordData[](medicalRecordsCount);\n\t\t\t\tfor (uint256 i = 0; i < medicalRecordKeys.length; i++) {\n\t\t\t\t\t\trecords[i] = medicalRecords[medicalRecordKeys[i]];\n\t\t\t\t}\n\t\t\t\treturn records;\n    }\n}\n\n",
  "sourcePath": "/home/wkdcodms127/truffle-ca/contracts/MedicalRecord.sol",
  "compiler": {
    "name": "solc",
    "version": "0.8.15+commit.e14f2714.Emscripten.clang"
  },
  "schemaVersion": "3.4.8",
  "updatedAt": "2024-04-19T07:40:44.771Z",
  "networkType": "ethereum",
  "devdoc": {
    "kind": "dev",
    "methods": {},
    "version": 1
  },
  "userdoc": {
    "kind": "user",
    "methods": {},
    "version": 1
  }
}