{
  "contractName": "MedicalRecord",
  "abi": [
    {
      "anonymous": false,
      "inputs": [
        {
          "indexed": false,
          "internalType": "string",
          "name": "name",
          "type": "string"
        },
        {
          "indexed": false,
          "internalType": "string",
          "name": "RRN",
          "type": "string"
        },
        {
          "indexed": false,
          "internalType": "string",
          "name": "KCD",
          "type": "string"
        },
        {
          "indexed": false,
          "internalType": "string",
          "name": "date",
          "type": "string"
        },
        {
          "indexed": false,
          "internalType": "string",
          "name": "receiptNumber",
          "type": "string"
        },
        {
          "indexed": false,
          "internalType": "uint256",
          "name": "totalOop",
          "type": "uint256"
        },
        {
          "indexed": false,
          "internalType": "uint256",
          "name": "totalPcc",
          "type": "uint256"
        },
        {
          "indexed": false,
          "internalType": "uint256",
          "name": "totalFoop",
          "type": "uint256"
        },
        {
          "indexed": false,
          "internalType": "uint256",
          "name": "nonReimbursement",
          "type": "uint256"
        },
        {
          "components": [
            {
              "internalType": "string",
              "name": "category",
              "type": "string"
            },
            {
              "internalType": "string",
              "name": "date",
              "type": "string"
            },
            {
              "internalType": "string",
              "name": "treatCode",
              "type": "string"
            },
            {
              "internalType": "string",
              "name": "description",
              "type": "string"
            },
            {
              "internalType": "uint256",
              "name": "price",
              "type": "uint256"
            },
            {
              "internalType": "uint256",
              "name": "oop",
              "type": "uint256"
            },
            {
              "internalType": "uint256",
              "name": "pcc",
              "type": "uint256"
            },
            {
              "internalType": "uint256",
              "name": "foop",
              "type": "uint256"
            },
            {
              "internalType": "uint256",
              "name": "nonReimbursement",
              "type": "uint256"
            }
          ],
          "indexed": false,
          "internalType": "struct MedicalRecord.TreatmentDetail[]",
          "name": "treatDetails",
          "type": "tuple[]"
        }
      ],
      "name": "MedicalRecordSet",
      "type": "event"
    },
    {
      "inputs": [],
      "name": "medicalRecordsCount",
      "outputs": [
        {
          "internalType": "uint256",
          "name": "",
          "type": "uint256"
        }
      ],
      "stateMutability": "view",
      "type": "function",
      "constant": true
    },
    {
      "inputs": [
        {
          "internalType": "string",
          "name": "_name",
          "type": "string"
        },
        {
          "internalType": "string",
          "name": "_RRN",
          "type": "string"
        },
        {
          "internalType": "string",
          "name": "_KCD",
          "type": "string"
        },
        {
          "internalType": "string",
          "name": "_date",
          "type": "string"
        },
        {
          "internalType": "string",
          "name": "_receiptNumber",
          "type": "string"
        },
        {
          "internalType": "uint256",
          "name": "_totalOop",
          "type": "uint256"
        },
        {
          "internalType": "uint256",
          "name": "_totalPcc",
          "type": "uint256"
        },
        {
          "internalType": "uint256",
          "name": "_totalFoop",
          "type": "uint256"
        },
        {
          "internalType": "uint256",
          "name": "_nonReimbursement",
          "type": "uint256"
        },
        {
          "components": [
            {
              "internalType": "string",
              "name": "category",
              "type": "string"
            },
            {
              "internalType": "string",
              "name": "date",
              "type": "string"
            },
            {
              "internalType": "string",
              "name": "treatCode",
              "type": "string"
            },
            {
              "internalType": "string",
              "name": "description",
              "type": "string"
            },
            {
              "internalType": "uint256",
              "name": "price",
              "type": "uint256"
            },
            {
              "internalType": "uint256",
              "name": "oop",
              "type": "uint256"
            },
            {
              "internalType": "uint256",
              "name": "pcc",
              "type": "uint256"
            },
            {
              "internalType": "uint256",
              "name": "foop",
              "type": "uint256"
            },
            {
              "internalType": "uint256",
              "name": "nonReimbursement",
              "type": "uint256"
            }
          ],
          "internalType": "struct MedicalRecord.TreatmentDetail[]",
          "name": "_treatDetails",
          "type": "tuple[]"
        }
      ],
      "name": "addMedicalRecord",
      "outputs": [],
      "stateMutability": "nonpayable",
      "type": "function"
    },
    {
      "inputs": [
        {
          "internalType": "string",
          "name": "_receiptNumber",
          "type": "string"
        }
      ],
      "name": "getMedicalRecord",
      "outputs": [
        {
          "components": [
            {
              "internalType": "string",
              "name": "name",
              "type": "string"
            },
            {
              "internalType": "string",
              "name": "RRN",
              "type": "string"
            },
            {
              "internalType": "string",
              "name": "KCD",
              "type": "string"
            },
            {
              "internalType": "string",
              "name": "date",
              "type": "string"
            },
            {
              "internalType": "string",
              "name": "receiptNumber",
              "type": "string"
            },
            {
              "internalType": "uint256",
              "name": "totalOop",
              "type": "uint256"
            },
            {
              "internalType": "uint256",
              "name": "totalPcc",
              "type": "uint256"
            },
            {
              "internalType": "uint256",
              "name": "totalFoop",
              "type": "uint256"
            },
            {
              "internalType": "uint256",
              "name": "nonReimbursement",
              "type": "uint256"
            },
            {
              "components": [
                {
                  "internalType": "string",
                  "name": "category",
                  "type": "string"
                },
                {
                  "internalType": "string",
                  "name": "date",
                  "type": "string"
                },
                {
                  "internalType": "string",
                  "name": "treatCode",
                  "type": "string"
                },
                {
                  "internalType": "string",
                  "name": "description",
                  "type": "string"
                },
                {
                  "internalType": "uint256",
                  "name": "price",
                  "type": "uint256"
                },
                {
                  "internalType": "uint256",
                  "name": "oop",
                  "type": "uint256"
                },
                {
                  "internalType": "uint256",
                  "name": "pcc",
                  "type": "uint256"
                },
                {
                  "internalType": "uint256",
                  "name": "foop",
                  "type": "uint256"
                },
                {
                  "internalType": "uint256",
                  "name": "nonReimbursement",
                  "type": "uint256"
                }
              ],
              "internalType": "struct MedicalRecord.TreatmentDetail[]",
              "name": "treatDetails",
              "type": "tuple[]"
            },
            {
              "internalType": "uint256",
              "name": "treatDetailsCount",
              "type": "uint256"
            }
          ],
          "internalType": "struct MedicalRecord.MedicalRecordData",
          "name": "",
          "type": "tuple"
        }
      ],
      "stateMutability": "view",
      "type": "function",
      "constant": true
    },
    {
      "inputs": [],
      "name": "getMedicalRecords",
      "outputs": [
        {
          "components": [
            {
              "internalType": "string",
              "name": "name",
              "type": "string"
            },
            {
              "internalType": "string",
              "name": "RRN",
              "type": "string"
            },
            {
              "internalType": "string",
              "name": "KCD",
              "type": "string"
            },
            {
              "internalType": "string",
              "name": "date",
              "type": "string"
            },
            {
              "internalType": "string",
              "name": "receiptNumber",
              "type": "string"
            },
            {
              "internalType": "uint256",
              "name": "totalOop",
              "type": "uint256"
            },
            {
              "internalType": "uint256",
              "name": "totalPcc",
              "type": "uint256"
            },
            {
              "internalType": "uint256",
              "name": "totalFoop",
              "type": "uint256"
            },
            {
              "internalType": "uint256",
              "name": "nonReimbursement",
              "type": "uint256"
            },
            {
              "components": [
                {
                  "internalType": "string",
                  "name": "category",
                  "type": "string"
                },
                {
                  "internalType": "string",
                  "name": "date",
                  "type": "string"
                },
                {
                  "internalType": "string",
                  "name": "treatCode",
                  "type": "string"
                },
                {
                  "internalType": "string",
                  "name": "description",
                  "type": "string"
                },
                {
                  "internalType": "uint256",
                  "name": "price",
                  "type": "uint256"
                },
                {
                  "internalType": "uint256",
                  "name": "oop",
                  "type": "uint256"
                },
                {
                  "internalType": "uint256",
                  "name": "pcc",
                  "type": "uint256"
                },
                {
                  "internalType": "uint256",
                  "name": "foop",
                  "type": "uint256"
                },
                {
                  "internalType": "uint256",
                  "name": "nonReimbursement",
                  "type": "uint256"
                }
              ],
              "internalType": "struct MedicalRecord.TreatmentDetail[]",
              "name": "treatDetails",
              "type": "tuple[]"
            },
            {
              "internalType": "uint256",
              "name": "treatDetailsCount",
              "type": "uint256"
            }
          ],
          "internalType": "struct MedicalRecord.MedicalRecordData[]",
          "name": "",
          "type": "tuple[]"
        }
      ],
      "stateMutability": "view",
      "type": "function",
      "constant": true
    },
    {
      "inputs": [
        {
          "internalType": "uint256",
          "name": "page",
          "type": "uint256"
        },
        {
          "internalType": "uint256",
          "name": "pageSize",
          "type": "uint256"
        },
        {
          "internalType": "uint256",
          "name": "curCount",
          "type": "uint256"
        }
      ],
      "name": "getPagedMedicalRecords",
      "outputs": [
        {
          "components": [
            {
              "internalType": "string",
              "name": "name",
              "type": "string"
            },
            {
              "internalType": "string",
              "name": "RRN",
              "type": "string"
            },
            {
              "internalType": "string",
              "name": "KCD",
              "type": "string"
            },
            {
              "internalType": "string",
              "name": "date",
              "type": "string"
            },
            {
              "internalType": "string",
              "name": "receiptNumber",
              "type": "string"
            },
            {
              "internalType": "uint256",
              "name": "totalOop",
              "type": "uint256"
            },
            {
              "internalType": "uint256",
              "name": "totalPcc",
              "type": "uint256"
            },
            {
              "internalType": "uint256",
              "name": "totalFoop",
              "type": "uint256"
            },
            {
              "internalType": "uint256",
              "name": "nonReimbursement",
              "type": "uint256"
            },
            {
              "components": [
                {
                  "internalType": "string",
                  "name": "category",
                  "type": "string"
                },
                {
                  "internalType": "string",
                  "name": "date",
                  "type": "string"
                },
                {
                  "internalType": "string",
                  "name": "treatCode",
                  "type": "string"
                },
                {
                  "internalType": "string",
                  "name": "description",
                  "type": "string"
                },
                {
                  "internalType": "uint256",
                  "name": "price",
                  "type": "uint256"
                },
                {
                  "internalType": "uint256",
                  "name": "oop",
                  "type": "uint256"
                },
                {
                  "internalType": "uint256",
                  "name": "pcc",
                  "type": "uint256"
                },
                {
                  "internalType": "uint256",
                  "name": "foop",
                  "type": "uint256"
                },
                {
                  "internalType": "uint256",
                  "name": "nonReimbursement",
                  "type": "uint256"
                }
              ],
              "internalType": "struct MedicalRecord.TreatmentDetail[]",
              "name": "treatDetails",
              "type": "tuple[]"
            },
            {
              "internalType": "uint256",
              "name": "treatDetailsCount",
              "type": "uint256"
            }
          ],
          "internalType": "struct MedicalRecord.MedicalRecordData[]",
          "name": "",
          "type": "tuple[]"
        }
      ],
      "stateMutability": "view",
      "type": "function",
      "constant": true
    },
    {
      "inputs": [
        {
          "internalType": "string",
          "name": "_receiptNumber",
          "type": "string"
        },
        {
          "internalType": "string",
          "name": "_sender",
          "type": "string"
        }
      ],
      "name": "deleteMedicalRecord",
      "outputs": [],
      "stateMutability": "nonpayable",
      "type": "function"
    },
    {
      "inputs": [
        {
          "internalType": "string",
          "name": "_sender",
          "type": "string"
        }
      ],
      "name": "isOwner",
      "outputs": [
        {
          "internalType": "bool",
          "name": "",
          "type": "bool"
        }
      ],
      "stateMutability": "view",
      "type": "function",
      "constant": true
    }
  ],
  "bytecode": "0x608060405234801561001057600080fd5b5061368a806100206000396000f3fe608060405234801561001057600080fd5b506004361061007d5760003560e01c80636aea20d31161005b5780636aea20d3146100ea578063b85e943d14610108578063cc368d5314610138578063e963bc96146101685761007d565b80630730760f146100825780632191ff9a1461009e57806357b892c2146100ce575b600080fd5b61009c600480360381019061009791906122a6565b610186565b005b6100b860048036038101906100b3919061242d565b610518565b6040516100c59190612887565b60405180910390f35b6100e860048036038101906100e391906128a9565b610d67565b005b6100f2610ed4565b6040516100ff9190612887565b60405180910390f35b610122600480360381019061011d9190612921565b6115a6565b60405161012f9190612985565b60405180910390f35b610152600480360381019061014d9190612921565b6115d8565b60405161015f9190612ab2565b60405180910390f35b610170611bf7565b60405161017d9190612ae3565b60405180910390f35b6040518060400160405280600381526020017f4a303900000000000000000000000000000000000000000000000000000000008152508051906020012088805190602001201461020b576040517f08c379a000000000000000000000000000000000000000000000000000000000815260040161020290612b5b565b60405180910390fd5b6000808760405161021c9190612bb7565b9081526020016040518091039020600001805461023890612bfd565b90501461027a576040517f08c379a000000000000000000000000000000000000000000000000000000000815260040161027190612c7a565b60405180910390fd5b6000808760405161028b9190612bb7565b908152602001604051809103902090508a8160000190816102ac9190612e46565b50898160010190816102be9190612e46565b50888160020190816102d09190612e46565b50878160030190816102e29190612e46565b50868160040190816102f49190612e46565b5085816005018190555084816006018190555083816007018190555082816008018190555060005b825181101561040d578160090183828151811061033c5761033b612f18565b5b6020026020010151908060018154018082558091505060019003906000526020600020906009020160009091909190915060008201518160000190816103829190612e46565b5060208201518160010190816103989190612e46565b5060408201518160020190816103ae9190612e46565b5060608201518160030190816103c49190612e46565b506080820151816004015560a0820151816005015560c0820151816006015560e0820151816007015561010082015181600801555050808061040590612f76565b91505061031c565b50815181600a018190555060028790806001815401808255809150506001900390600052602060002001600090919091909150908161044c9190612e46565b506001600081548092919061046090612f76565b9190505550336003886040516104769190612bb7565b908152602001604051809103902060006101000a81548173ffffffffffffffffffffffffffffffffffffffff021916908373ffffffffffffffffffffffffffffffffffffffff1602179055507fab6fb1d1889630ca2a543375ed4981bfdd33261754f524d5fafd7490ebfcc1de8b8b8b8b8b8b8b8b8b8b6040516105039a9998979695949392919061307d565b60405180910390a15050505050505050505050565b606060008314806105295750600084145b1561058a57600067ffffffffffffffff81111561054957610548611f05565b5b60405190808252806020026020018201604052801561058257816020015b61056f611d7c565b8152602001906001900390816105675790505b509050610d60565b81836001866105999190613143565b6105a39190613177565b1061060457600067ffffffffffffffff8111156105c3576105c2611f05565b5b6040519080825280602002602001820160405280156105fc57816020015b6105e9611d7c565b8152602001906001900390816105e15790505b509050610d60565b60006001846001876106169190613143565b6106209190613177565b8461062b9190613143565b6106359190613143565b905060006001856106469190613143565b82101561065457600061066d565b6001856106619190613143565b8261066c9190613143565b5b905060006001828461067f9190613143565b61068991906131d1565b905060008167ffffffffffffffff8111156106a7576106a6611f05565b5b6040519080825280602002602001820160405280156106e057816020015b6106cd611d7c565b8152602001906001900390816106c55790505b50905060005b82811015610d57576000600282876106fe9190613143565b8154811061070f5761070e612f18565b5b9060005260206000200160405161072691906132aa565b90815260200160405180910390206040518061016001604052908160008201805461075090612bfd565b80601f016020809104026020016040519081016040528092919081815260200182805461077c90612bfd565b80156107c95780601f1061079e576101008083540402835291602001916107c9565b820191906000526020600020905b8154815290600101906020018083116107ac57829003601f168201915b505050505081526020016001820180546107e290612bfd565b80601f016020809104026020016040519081016040528092919081815260200182805461080e90612bfd565b801561085b5780601f106108305761010080835404028352916020019161085b565b820191906000526020600020905b81548152906001019060200180831161083e57829003601f168201915b5050505050815260200160028201805461087490612bfd565b80601f01602080910402602001604051908101604052809291908181526020018280546108a090612bfd565b80156108ed5780601f106108c2576101008083540402835291602001916108ed565b820191906000526020600020905b8154815290600101906020018083116108d057829003601f168201915b5050505050815260200160038201805461090690612bfd565b80601f016020809104026020016040519081016040528092919081815260200182805461093290612bfd565b801561097f5780601f106109545761010080835404028352916020019161097f565b820191906000526020600020905b81548152906001019060200180831161096257829003601f168201915b5050505050815260200160048201805461099890612bfd565b80601f01602080910402602001604051908101604052809291908181526020018280546109c490612bfd565b8015610a115780601f106109e657610100808354040283529160200191610a11565b820191906000526020600020905b8154815290600101906020018083116109f457829003601f168201915b505050505081526020016005820154815260200160068201548152602001600782015481526020016008820154815260200160098201805480602002602001604051908101604052809291908181526020016000905b82821015610d14578382906000526020600020906009020160405180610120016040529081600082018054610a9b90612bfd565b80601f0160208091040260200160405190810160405280929190818152602001828054610ac790612bfd565b8015610b145780601f10610ae957610100808354040283529160200191610b14565b820191906000526020600020905b815481529060010190602001808311610af757829003601f168201915b50505050508152602001600182018054610b2d90612bfd565b80601f0160208091040260200160405190810160405280929190818152602001828054610b5990612bfd565b8015610ba65780601f10610b7b57610100808354040283529160200191610ba6565b820191906000526020600020905b815481529060010190602001808311610b8957829003601f168201915b50505050508152602001600282018054610bbf90612bfd565b80601f0160208091040260200160405190810160405280929190818152602001828054610beb90612bfd565b8015610c385780601f10610c0d57610100808354040283529160200191610c38565b820191906000526020600020905b815481529060010190602001808311610c1b57829003601f168201915b50505050508152602001600382018054610c5190612bfd565b80601f0160208091040260200160405190810160405280929190818152602001828054610c7d90612bfd565b8015610cca5780601f10610c9f57610100808354040283529160200191610cca565b820191906000526020600020905b815481529060010190602001808311610cad57829003601f168201915b505050505081526020016004820154815260200160058201548152602001600682015481526020016007820154815260200160088201548152505081526020019060010190610a67565b505050508152602001600a82015481525050828281518110610d3957610d38612f18565b5b60200260200101819052508080610d4f90612f76565b9150506106e6565b50809450505050505b9392505050565b60008083604051610d789190612bb7565b90815260200160405180910390206000018054610d9490612bfd565b905003610dd6576040517f08c379a0000000000000000000000000000000000000000000000000000000008152600401610dcd9061330d565b60405180910390fd5b610ddf816115a6565b610e1e576040517f08c379a0000000000000000000000000000000000000000000000000000000008152600401610e1590613379565b60405180910390fd5b600082604051610e2e9190612bb7565b908152602001604051809103902060008082016000610e4d9190611dd6565b600182016000610e5d9190611dd6565b600282016000610e6d9190611dd6565b600382016000610e7d9190611dd6565b600482016000610e8d9190611dd6565b6005820160009055600682016000905560078201600090556008820160009055600982016000610ebd9190611e16565b600a8201600090555050610ed082611bfd565b5050565b6060600060015467ffffffffffffffff811115610ef457610ef3611f05565b5b604051908082528060200260200182016040528015610f2d57816020015b610f1a611d7c565b815260200190600190039081610f125790505b50905060005b60028054905081101561159e57600060028281548110610f5657610f55612f18565b5b90600052602060002001604051610f6d91906132aa565b908152602001604051809103902060405180610160016040529081600082018054610f9790612bfd565b80601f0160208091040260200160405190810160405280929190818152602001828054610fc390612bfd565b80156110105780601f10610fe557610100808354040283529160200191611010565b820191906000526020600020905b815481529060010190602001808311610ff357829003601f168201915b5050505050815260200160018201805461102990612bfd565b80601f016020809104026020016040519081016040528092919081815260200182805461105590612bfd565b80156110a25780601f10611077576101008083540402835291602001916110a2565b820191906000526020600020905b81548152906001019060200180831161108557829003601f168201915b505050505081526020016002820180546110bb90612bfd565b80601f01602080910402602001604051908101604052809291908181526020018280546110e790612bfd565b80156111345780601f1061110957610100808354040283529160200191611134565b820191906000526020600020905b81548152906001019060200180831161111757829003601f168201915b5050505050815260200160038201805461114d90612bfd565b80601f016020809104026020016040519081016040528092919081815260200182805461117990612bfd565b80156111c65780601f1061119b576101008083540402835291602001916111c6565b820191906000526020600020905b8154815290600101906020018083116111a957829003601f168201915b505050505081526020016004820180546111df90612bfd565b80601f016020809104026020016040519081016040528092919081815260200182805461120b90612bfd565b80156112585780601f1061122d57610100808354040283529160200191611258565b820191906000526020600020905b81548152906001019060200180831161123b57829003601f168201915b505050505081526020016005820154815260200160068201548152602001600782015481526020016008820154815260200160098201805480602002602001604051908101604052809291908181526020016000905b8282101561155b5783829060005260206000209060090201604051806101200160405290816000820180546112e290612bfd565b80601f016020809104026020016040519081016040528092919081815260200182805461130e90612bfd565b801561135b5780601f106113305761010080835404028352916020019161135b565b820191906000526020600020905b81548152906001019060200180831161133e57829003601f168201915b5050505050815260200160018201805461137490612bfd565b80601f01602080910402602001604051908101604052809291908181526020018280546113a090612bfd565b80156113ed5780601f106113c2576101008083540402835291602001916113ed565b820191906000526020600020905b8154815290600101906020018083116113d057829003601f168201915b5050505050815260200160028201805461140690612bfd565b80601f016020809104026020016040519081016040528092919081815260200182805461143290612bfd565b801561147f5780601f106114545761010080835404028352916020019161147f565b820191906000526020600020905b81548152906001019060200180831161146257829003601f168201915b5050505050815260200160038201805461149890612bfd565b80601f01602080910402602001604051908101604052809291908181526020018280546114c490612bfd565b80156115115780601f106114e657610100808354040283529160200191611511565b820191906000526020600020905b8154815290600101906020018083116114f457829003601f168201915b5050505050815260200160048201548152602001600582015481526020016006820154815260200160078201548152602001600882015481525050815260200190600101906112ae565b505050508152602001600a820154815250508282815181106115805761157f612f18565b5b6020026020010181905250808061159690612f76565b915050610f33565b508091505090565b60006040518060600160405280602a815260200161362b602a9139805190602001208280519060200120149050919050565b6115e0611d7c565b6000826040516115f09190612bb7565b90815260200160405180910390206040518061016001604052908160008201805461161a90612bfd565b80601f016020809104026020016040519081016040528092919081815260200182805461164690612bfd565b80156116935780601f1061166857610100808354040283529160200191611693565b820191906000526020600020905b81548152906001019060200180831161167657829003601f168201915b505050505081526020016001820180546116ac90612bfd565b80601f01602080910402602001604051908101604052809291908181526020018280546116d890612bfd565b80156117255780601f106116fa57610100808354040283529160200191611725565b820191906000526020600020905b81548152906001019060200180831161170857829003601f168201915b5050505050815260200160028201805461173e90612bfd565b80601f016020809104026020016040519081016040528092919081815260200182805461176a90612bfd565b80156117b75780601f1061178c576101008083540402835291602001916117b7565b820191906000526020600020905b81548152906001019060200180831161179a57829003601f168201915b505050505081526020016003820180546117d090612bfd565b80601f01602080910402602001604051908101604052809291908181526020018280546117fc90612bfd565b80156118495780601f1061181e57610100808354040283529160200191611849565b820191906000526020600020905b81548152906001019060200180831161182c57829003601f168201915b5050505050815260200160048201805461186290612bfd565b80601f016020809104026020016040519081016040528092919081815260200182805461188e90612bfd565b80156118db5780601f106118b0576101008083540402835291602001916118db565b820191906000526020600020905b8154815290600101906020018083116118be57829003601f168201915b505050505081526020016005820154815260200160068201548152602001600782015481526020016008820154815260200160098201805480602002602001604051908101604052809291908181526020016000905b82821015611bde57838290600052602060002090600902016040518061012001604052908160008201805461196590612bfd565b80601f016020809104026020016040519081016040528092919081815260200182805461199190612bfd565b80156119de5780601f106119b3576101008083540402835291602001916119de565b820191906000526020600020905b8154815290600101906020018083116119c157829003601f168201915b505050505081526020016001820180546119f790612bfd565b80601f0160208091040260200160405190810160405280929190818152602001828054611a2390612bfd565b8015611a705780601f10611a4557610100808354040283529160200191611a70565b820191906000526020600020905b815481529060010190602001808311611a5357829003601f168201915b50505050508152602001600282018054611a8990612bfd565b80601f0160208091040260200160405190810160405280929190818152602001828054611ab590612bfd565b8015611b025780601f10611ad757610100808354040283529160200191611b02565b820191906000526020600020905b815481529060010190602001808311611ae557829003601f168201915b50505050508152602001600382018054611b1b90612bfd565b80601f0160208091040260200160405190810160405280929190818152602001828054611b4790612bfd565b8015611b945780601f10611b6957610100808354040283529160200191611b94565b820191906000526020600020905b815481529060010190602001808311611b7757829003601f168201915b505050505081526020016004820154815260200160058201548152602001600682015481526020016007820154815260200160088201548152505081526020019060010190611931565b505050508152602001600a820154815250509050919050565b60015481565b6000611c0882611cca565b90506001600280549050611c1c9190613143565b811015611c7e5760026001600280549050611c379190613143565b81548110611c4857611c47612f18565b5b9060005260206000200160028281548110611c6657611c65612f18565b5b906000526020600020019081611c7c91906133c4565b505b6002805480611c9057611c8f6134ac565b5b600190038181906000526020600020016000611cac9190611dd6565b905560016000815480929190611cc1906134db565b91905055505050565b600080600090505b600280549050811015611d3b57828051906020012060028281548110611cfb57611cfa612f18565b5b90600052602060002001604051611d1291906135a7565b604051809103902003611d285780915050611d77565b8080611d3390612f76565b915050611cd2565b506040517f08c379a0000000000000000000000000000000000000000000000000000000008152600401611d6e9061360a565b60405180910390fd5b919050565b60405180610160016040528060608152602001606081526020016060815260200160608152602001606081526020016000815260200160008152602001600081526020016000815260200160608152602001600081525090565b508054611de290612bfd565b6000825580601f10611df45750611e13565b601f016020900490600052602060002090810190611e129190611e3a565b5b50565b5080546000825560090290600052602060002090810190611e379190611e57565b50565b5b80821115611e53576000816000905550600101611e3b565b5090565b5b80821115611ed25760008082016000611e719190611dd6565b600182016000611e819190611dd6565b600282016000611e919190611dd6565b600382016000611ea19190611dd6565b6004820160009055600582016000905560068201600090556007820160009055600882016000905550600901611e58565b5090565b6000604051905090565b600080fd5b600080fd5b600080fd5b600080fd5b6000601f19601f8301169050919050565b7f4e487b7100000000000000000000000000000000000000000000000000000000600052604160045260246000fd5b611f3d82611ef4565b810181811067ffffffffffffffff82111715611f5c57611f5b611f05565b5b80604052505050565b6000611f6f611ed6565b9050611f7b8282611f34565b919050565b600067ffffffffffffffff821115611f9b57611f9a611f05565b5b611fa482611ef4565b9050602081019050919050565b82818337600083830152505050565b6000611fd3611fce84611f80565b611f65565b905082815260208101848484011115611fef57611fee611eef565b5b611ffa848285611fb1565b509392505050565b600082601f83011261201757612016611eea565b5b8135612027848260208601611fc0565b91505092915050565b6000819050919050565b61204381612030565b811461204e57600080fd5b50565b6000813590506120608161203a565b92915050565b600067ffffffffffffffff82111561208157612080611f05565b5b602082029050602081019050919050565b600080fd5b600080fd5b600080fd5b600061012082840312156120b8576120b7612097565b5b6120c3610120611f65565b9050600082013567ffffffffffffffff8111156120e3576120e261209c565b5b6120ef84828501612002565b600083015250602082013567ffffffffffffffff8111156121135761211261209c565b5b61211f84828501612002565b602083015250604082013567ffffffffffffffff8111156121435761214261209c565b5b61214f84828501612002565b604083015250606082013567ffffffffffffffff8111156121735761217261209c565b5b61217f84828501612002565b606083015250608061219384828501612051565b60808301525060a06121a784828501612051565b60a08301525060c06121bb84828501612051565b60c08301525060e06121cf84828501612051565b60e0830152506101006121e484828501612051565b6101008301525092915050565b60006122046121ff84612066565b611f65565b9050808382526020820190506020840283018581111561222757612226612092565b5b835b8181101561226e57803567ffffffffffffffff81111561224c5761224b611eea565b5b80860161225989826120a1565b85526020850194505050602081019050612229565b5050509392505050565b600082601f83011261228d5761228c611eea565b5b813561229d8482602086016121f1565b91505092915050565b6000806000806000806000806000806101408b8d0312156122ca576122c9611ee0565b5b60008b013567ffffffffffffffff8111156122e8576122e7611ee5565b5b6122f48d828e01612002565b9a505060208b013567ffffffffffffffff81111561231557612314611ee5565b5b6123218d828e01612002565b99505060408b013567ffffffffffffffff81111561234257612341611ee5565b5b61234e8d828e01612002565b98505060608b013567ffffffffffffffff81111561236f5761236e611ee5565b5b61237b8d828e01612002565b97505060808b013567ffffffffffffffff81111561239c5761239b611ee5565b5b6123a88d828e01612002565b96505060a06123b98d828e01612051565b95505060c06123ca8d828e01612051565b94505060e06123db8d828e01612051565b9350506101006123ed8d828e01612051565b9250506101208b013567ffffffffffffffff81111561240f5761240e611ee5565b5b61241b8d828e01612278565b9150509295989b9194979a5092959850565b60008060006060848603121561244657612445611ee0565b5b600061245486828701612051565b935050602061246586828701612051565b925050604061247686828701612051565b9150509250925092565b600081519050919050565b600082825260208201905092915050565b6000819050602082019050919050565b600081519050919050565b600082825260208201905092915050565b60005b838110156124e65780820151818401526020810190506124cb565b838111156124f5576000848401525b50505050565b6000612506826124ac565b61251081856124b7565b93506125208185602086016124c8565b61252981611ef4565b840191505092915050565b61253d81612030565b82525050565b600081519050919050565b600082825260208201905092915050565b6000819050602082019050919050565b600061012083016000830151848203600086015261258d82826124fb565b915050602083015184820360208601526125a782826124fb565b915050604083015184820360408601526125c182826124fb565b915050606083015184820360608601526125db82826124fb565b91505060808301516125f06080860182612534565b5060a083015161260360a0860182612534565b5060c083015161261660c0860182612534565b5060e083015161262960e0860182612534565b5061010083015161263e610100860182612534565b508091505092915050565b6000612655838361256f565b905092915050565b6000602082019050919050565b600061267582612543565b61267f818561254e565b9350836020820285016126918561255f565b8060005b858110156126cd57848403895281516126ae8582612649565b94506126b98361265d565b925060208a01995050600181019050612695565b50829750879550505050505092915050565b60006101608301600083015184820360008601526126fd82826124fb565b9150506020830151848203602086015261271782826124fb565b9150506040830151848203604086015261273182826124fb565b9150506060830151848203606086015261274b82826124fb565b9150506080830151848203608086015261276582826124fb565b91505060a083015161277a60a0860182612534565b5060c083015161278d60c0860182612534565b5060e08301516127a060e0860182612534565b506101008301516127b5610100860182612534565b506101208301518482036101208601526127cf828261266a565b9150506101408301516127e6610140860182612534565b508091505092915050565b60006127fd83836126df565b905092915050565b6000602082019050919050565b600061281d82612480565b612827818561248b565b9350836020820285016128398561249c565b8060005b85811015612875578484038952815161285685826127f1565b945061286183612805565b925060208a0199505060018101905061283d565b50829750879550505050505092915050565b600060208201905081810360008301526128a18184612812565b905092915050565b600080604083850312156128c0576128bf611ee0565b5b600083013567ffffffffffffffff8111156128de576128dd611ee5565b5b6128ea85828601612002565b925050602083013567ffffffffffffffff81111561290b5761290a611ee5565b5b61291785828601612002565b9150509250929050565b60006020828403121561293757612936611ee0565b5b600082013567ffffffffffffffff81111561295557612954611ee5565b5b61296184828501612002565b91505092915050565b60008115159050919050565b61297f8161296a565b82525050565b600060208201905061299a6000830184612976565b92915050565b60006101608301600083015184820360008601526129be82826124fb565b915050602083015184820360208601526129d882826124fb565b915050604083015184820360408601526129f282826124fb565b91505060608301518482036060860152612a0c82826124fb565b91505060808301518482036080860152612a2682826124fb565b91505060a0830151612a3b60a0860182612534565b5060c0830151612a4e60c0860182612534565b5060e0830151612a6160e0860182612534565b50610100830151612a76610100860182612534565b50610120830151848203610120860152612a90828261266a565b915050610140830151612aa7610140860182612534565b508091505092915050565b60006020820190508181036000830152612acc81846129a0565b905092915050565b612add81612030565b82525050565b6000602082019050612af86000830184612ad4565b92915050565b600082825260208201905092915050565b7f4b434420646f6573206e6f74206d617463680000000000000000000000000000600082015250565b6000612b45601283612afe565b9150612b5082612b0f565b602082019050919050565b60006020820190508181036000830152612b7481612b38565b9050919050565b600081905092915050565b6000612b91826124ac565b612b9b8185612b7b565b9350612bab8185602086016124c8565b80840191505092915050565b6000612bc38284612b86565b915081905092915050565b7f4e487b7100000000000000000000000000000000000000000000000000000000600052602260045260246000fd5b60006002820490506001821680612c1557607f821691505b602082108103612c2857612c27612bce565b5b50919050565b7f52656365697074206e756d62657220616c726561647920657869737473000000600082015250565b6000612c64601d83612afe565b9150612c6f82612c2e565b602082019050919050565b60006020820190508181036000830152612c9381612c57565b9050919050565b60008190508160005260206000209050919050565b60006020601f8301049050919050565b600082821b905092915050565b600060088302612cfc7fffffffffffffffffffffffffffffffffffffffffffffffffffffffffffffffff82612cbf565b612d068683612cbf565b95508019841693508086168417925050509392505050565b6000819050919050565b6000612d43612d3e612d3984612030565b612d1e565b612030565b9050919050565b6000819050919050565b612d5d83612d28565b612d71612d6982612d4a565b848454612ccc565b825550505050565b600090565b612d86612d79565b612d91818484612d54565b505050565b5b81811015612db557612daa600082612d7e565b600181019050612d97565b5050565b601f821115612dfa57612dcb81612c9a565b612dd484612caf565b81016020851015612de3578190505b612df7612def85612caf565b830182612d96565b50505b505050565b600082821c905092915050565b6000612e1d60001984600802612dff565b1980831691505092915050565b6000612e368383612e0c565b9150826002028217905092915050565b612e4f826124ac565b67ffffffffffffffff811115612e6857612e67611f05565b5b612e728254612bfd565b612e7d828285612db9565b600060209050601f831160018114612eb05760008415612e9e578287015190505b612ea88582612e2a565b865550612f10565b601f198416612ebe86612c9a565b60005b82811015612ee657848901518255600182019150602085019450602081019050612ec1565b86831015612f035784890151612eff601f891682612e0c565b8355505b6001600288020188555050505b505050505050565b7f4e487b7100000000000000000000000000000000000000000000000000000000600052603260045260246000fd5b7f4e487b7100000000000000000000000000000000000000000000000000000000600052601160045260246000fd5b6000612f8182612030565b91507fffffffffffffffffffffffffffffffffffffffffffffffffffffffffffffffff8203612fb357612fb2612f47565b5b600182019050919050565b6000612fc9826124ac565b612fd38185612afe565b9350612fe38185602086016124c8565b612fec81611ef4565b840191505092915050565b600082825260208201905092915050565b600061301382612543565b61301d8185612ff7565b93508360208202850161302f8561255f565b8060005b8581101561306b578484038952815161304c8582612649565b94506130578361265d565b925060208a01995050600181019050613033565b50829750879550505050505092915050565b6000610140820190508181036000830152613098818d612fbe565b905081810360208301526130ac818c612fbe565b905081810360408301526130c0818b612fbe565b905081810360608301526130d4818a612fbe565b905081810360808301526130e88189612fbe565b90506130f760a0830188612ad4565b61310460c0830187612ad4565b61311160e0830186612ad4565b61311f610100830185612ad4565b8181036101208301526131328184613008565b90509b9a5050505050505050505050565b600061314e82612030565b915061315983612030565b92508282101561316c5761316b612f47565b5b828203905092915050565b600061318282612030565b915061318d83612030565b9250817fffffffffffffffffffffffffffffffffffffffffffffffffffffffffffffffff04831182151516156131c6576131c5612f47565b5b828202905092915050565b60006131dc82612030565b91506131e783612030565b9250827fffffffffffffffffffffffffffffffffffffffffffffffffffffffffffffffff0382111561321c5761321b612f47565b5b828201905092915050565b6000815461323481612bfd565b61323e8186612b7b565b94506001821660008114613259576001811461326e576132a1565b60ff19831686528115158202860193506132a1565b61327785612c9a565b60005b838110156132995781548189015260018201915060208101905061327a565b838801955050505b50505092915050565b60006132b68284613227565b915081905092915050565b7f4e6f207265636f726420666f756e6420746f2064656c6574652e000000000000600082015250565b60006132f7601a83612afe565b9150613302826132c1565b602082019050919050565b60006020820190508181036000830152613326816132ea565b9050919050565b7f556e617574686f72697a6564206163636573732e000000000000000000000000600082015250565b6000613363601483612afe565b915061336e8261332d565b602082019050919050565b6000602082019050818103600083015261339281613356565b9050919050565b6000815490506133a881612bfd565b9050919050565b60008190508160005260206000209050919050565b8181036133d25750506134aa565b6133db82613399565b67ffffffffffffffff8111156133f4576133f3611f05565b5b6133fe8254612bfd565b613409828285612db9565b6000601f8311600181146134385760008415613426578287015490505b6134308582612e2a565b8655506134a3565b601f198416613446876133af565b965061345186612c9a565b60005b8281101561347957848901548255600182019150600185019450602081019050613454565b868310156134965784890154613492601f891682612e0c565b8355505b6001600288020188555050505b5050505050505b565b7f4e487b7100000000000000000000000000000000000000000000000000000000600052603160045260246000fd5b60006134e682612030565b9150600082036134f9576134f8612f47565b5b600182039050919050565b600081905092915050565b60008190508160005260206000209050919050565b6000815461353181612bfd565b61353b8186613504565b94506001821660008114613556576001811461356b5761359e565b60ff198316865281151582028601935061359e565b6135748561350f565b60005b8381101561359657815481890152600182019150602081019050613577565b838801955050505b50505092915050565b60006135b38284613524565b915081905092915050565b7f52656365697074206e756d626572206e6f7420666f756e642e00000000000000600082015250565b60006135f4601983612afe565b91506135ff826135be565b602082019050919050565b60006020820190508181036000830152613623816135e7565b905091905056fe307835383435353333323666343434633742383439343833464542333245384442356331466530363839a2646970667358221220b9564a5e0ccf354e6d4ea32666c4df40cc50826f9218f741eb1e5fb60ff6577b64736f6c634300080f0033",
  "immutableReferences": {},
  "source": "// SPDX-License-Identifier: MIT\npragma solidity ^0.8.15;\n\ncontract MedicalRecord {\n    //  \n    struct TreatmentDetail {\n        string category;\n        string date;\n        string treatCode;\n        string description;\n        uint256 price;\n        uint256 oop;\n        uint256 pcc;\n        uint256 foop;\n        uint256 nonReimbursement;\n    }\n    //  \n    struct MedicalRecordData {\n        string name;\n        string RRN;\n        string KCD;\n        string date;\n        string receiptNumber;\n        uint256 totalOop;\n        uint256 totalPcc;\n        uint256 totalFoop;\n        uint256 nonReimbursement;\n        TreatmentDetail[] treatDetails;\n        uint256 treatDetailsCount;\n    }\n\n    // \n    string private constant DEFAULT_KCD = \"J09\"; // Default KCD value\n    string private constant DEFAULT_owner = \"0x584553326f444c7B849483FEB32E8DB5c1Fe0689\";\n    mapping(string => MedicalRecordData) private medicalRecords;\n    uint256 public medicalRecordsCount;\n    string[] private medicalRecordKeys;\n    mapping(string => address) private recordOwners; // Store record owners\n\n    //   \n    event MedicalRecordSet(\n        string name,\n        string RRN,\n        string KCD,\n        string date,\n        string receiptNumber,\n        uint256 totalOop,\n        uint256 totalPcc,\n        uint256 totalFoop,\n        uint256 nonReimbursement,\n        TreatmentDetail[] treatDetails\n    );\n\n    // \n    //    \n    function addMedicalRecord(\n        string memory _name,\n        string memory _RRN,\n        string memory _KCD,\n        string memory _date,\n        string memory _receiptNumber,\n        uint256 _totalOop,\n        uint256 _totalPcc,\n        uint256 _totalFoop,\n        uint256 _nonReimbursement,\n        TreatmentDetail[] memory _treatDetails\n    ) public {\n        require(keccak256(bytes(_KCD)) == keccak256(bytes(DEFAULT_KCD)), \"KCD does not match\");\n        require(bytes(medicalRecords[_receiptNumber].name).length == 0, \"Receipt number already exists\");\n\n        MedicalRecordData storage record = medicalRecords[_receiptNumber];\n        record.name = _name;\n        record.RRN = _RRN;\n        record.KCD = _KCD;\n        record.date = _date;\n        record.receiptNumber = _receiptNumber;\n        record.totalOop = _totalOop;\n        record.totalPcc = _totalPcc;\n        record.totalFoop = _totalFoop;\n        record.nonReimbursement = _nonReimbursement;\n\n        for (uint256 i = 0; i < _treatDetails.length; i++) {\n            record.treatDetails.push(_treatDetails[i]);\n        }\n        record.treatDetailsCount = _treatDetails.length;\n\n        medicalRecordKeys.push(_receiptNumber);\n        medicalRecordsCount++;\n        recordOwners[_receiptNumber] = msg.sender;\n\n        emit MedicalRecordSet(_name, _RRN, _KCD, _date, _receiptNumber, _totalOop, _totalPcc, _totalFoop, _nonReimbursement, _treatDetails);\n    }\n\n    //    \n    function getMedicalRecord(string memory _receiptNumber) public view returns (MedicalRecordData memory) {\n        return medicalRecords[_receiptNumber];\n    }\n\n    //    \n    function getMedicalRecords() public view returns (MedicalRecordData[] memory) {\n        MedicalRecordData[] memory records = new MedicalRecordData[](medicalRecordsCount);\n        for (uint256 i = 0; i < medicalRecordKeys.length; i++) {\n            records[i] = medicalRecords[medicalRecordKeys[i]];\n        }\n        return records;\n    }\n\n    //     , \n    function getPagedMedicalRecords(uint256 page, uint256 pageSize, uint256 curCount) public view returns (MedicalRecordData[] memory) {\n        if (pageSize == 0 || page == 0) {\n            return new MedicalRecordData[](0);\n        }\n\n        if ((page - 1) * pageSize >= curCount) {\n            return new MedicalRecordData[](0);\n        }\n\n        uint256 startIndex = curCount - (page - 1) * pageSize - 1;\n        uint256 endIndex = startIndex >= (pageSize - 1) ? startIndex - (pageSize - 1) : 0;\n\n        uint256 count = startIndex - endIndex + 1;\n        MedicalRecordData[] memory pageRecords = new MedicalRecordData[](count);\n        for (uint256 i = 0; i < count; i++) {\n            pageRecords[i] = medicalRecords[medicalRecordKeys[startIndex - i]];\n        }\n        return pageRecords;\n    }\n\n    //   \n    function deleteMedicalRecord(string memory _receiptNumber, string memory _sender) public {\n        require(bytes(medicalRecords[_receiptNumber].name).length != 0, \"No record found to delete.\");\n        require(isOwner(_sender), \"Unauthorized access.\");\n\n        delete medicalRecords[_receiptNumber];\n        removeKey(_receiptNumber);\n    }\n\n    // key \n    function removeKey(string memory _receiptNumber) private {\n        uint256 index = findIndex(_receiptNumber);\n        if (index < medicalRecordKeys.length - 1) {\n            medicalRecordKeys[index] = medicalRecordKeys[medicalRecordKeys.length - 1];\n        }\n        medicalRecordKeys.pop();\n        medicalRecordsCount--;\n    }\n\n    // key  \n    function findIndex(string memory _receiptNumber) private view returns (uint256) {\n        for (uint256 i = 0; i < medicalRecordKeys.length; i++) {\n            if (keccak256(bytes(medicalRecordKeys[i])) == keccak256(bytes(_receiptNumber))) {\n                return i;\n            }\n        }\n        revert(\"Receipt number not found.\");\n    }\n\n    //  \n    function isOwner(string memory _sender) public view returns (bool) {\n\treturn keccak256(bytes(_sender)) == keccak256(bytes(DEFAULT_owner));\n    }\n}\n\n",
  "sourcePath": "/home/wkdcodms127/truffle-ca/contracts/MedicalRecord.sol",
  "compiler": {
    "name": "solc",
    "version": "0.8.15+commit.e14f2714.Emscripten.clang"
  },
  "schemaVersion": "3.4.8",
  "updatedAt": "2024-04-23T05:27:53.393Z",
  "networkType": "ethereum",
  "devdoc": {
    "kind": "dev",
    "methods": {},
    "version": 1
  },
  "userdoc": {
    "kind": "user",
    "methods": {},
    "version": 1
  }
}