{
  "contractName": "MedicalRecord",
  "abi": [
    {
      "anonymous": false,
      "inputs": [
        {
          "indexed": false,
          "internalType": "string",
          "name": "name",
          "type": "string"
        },
        {
          "indexed": false,
          "internalType": "string",
          "name": "RRN",
          "type": "string"
        },
        {
          "indexed": false,
          "internalType": "string",
          "name": "KCD",
          "type": "string"
        },
        {
          "indexed": false,
          "internalType": "string",
          "name": "date",
          "type": "string"
        },
        {
          "indexed": false,
          "internalType": "string",
          "name": "receiptNumber",
          "type": "string"
        },
        {
          "indexed": false,
          "internalType": "uint256",
          "name": "totalOop",
          "type": "uint256"
        },
        {
          "indexed": false,
          "internalType": "uint256",
          "name": "totalPcc",
          "type": "uint256"
        },
        {
          "indexed": false,
          "internalType": "uint256",
          "name": "totalFoop",
          "type": "uint256"
        },
        {
          "indexed": false,
          "internalType": "uint256",
          "name": "nonReimbursement",
          "type": "uint256"
        },
        {
          "components": [
            {
              "internalType": "string",
              "name": "category",
              "type": "string"
            },
            {
              "internalType": "string",
              "name": "date",
              "type": "string"
            },
            {
              "internalType": "string",
              "name": "treatCode",
              "type": "string"
            },
            {
              "internalType": "string",
              "name": "description",
              "type": "string"
            },
            {
              "internalType": "uint256",
              "name": "price",
              "type": "uint256"
            },
            {
              "internalType": "uint256",
              "name": "oop",
              "type": "uint256"
            },
            {
              "internalType": "uint256",
              "name": "pcc",
              "type": "uint256"
            },
            {
              "internalType": "uint256",
              "name": "foop",
              "type": "uint256"
            },
            {
              "internalType": "uint256",
              "name": "nonReimbursement",
              "type": "uint256"
            }
          ],
          "indexed": false,
          "internalType": "struct MedicalRecord.TreatmentDetail[]",
          "name": "treatDetails",
          "type": "tuple[]"
        }
      ],
      "name": "MedicalRecordSet",
      "type": "event"
    },
    {
      "inputs": [],
      "name": "medicalRecordsCount",
      "outputs": [
        {
          "internalType": "uint256",
          "name": "",
          "type": "uint256"
        }
      ],
      "stateMutability": "view",
      "type": "function",
      "constant": true
    },
    {
      "inputs": [
        {
          "internalType": "string",
          "name": "_name",
          "type": "string"
        },
        {
          "internalType": "string",
          "name": "_RRN",
          "type": "string"
        },
        {
          "internalType": "string",
          "name": "_KCD",
          "type": "string"
        },
        {
          "internalType": "string",
          "name": "_date",
          "type": "string"
        },
        {
          "internalType": "string",
          "name": "_receiptNumber",
          "type": "string"
        },
        {
          "internalType": "uint256",
          "name": "_totalOop",
          "type": "uint256"
        },
        {
          "internalType": "uint256",
          "name": "_totalPcc",
          "type": "uint256"
        },
        {
          "internalType": "uint256",
          "name": "_totalFoop",
          "type": "uint256"
        },
        {
          "internalType": "uint256",
          "name": "_nonReimbursement",
          "type": "uint256"
        },
        {
          "components": [
            {
              "internalType": "string",
              "name": "category",
              "type": "string"
            },
            {
              "internalType": "string",
              "name": "date",
              "type": "string"
            },
            {
              "internalType": "string",
              "name": "treatCode",
              "type": "string"
            },
            {
              "internalType": "string",
              "name": "description",
              "type": "string"
            },
            {
              "internalType": "uint256",
              "name": "price",
              "type": "uint256"
            },
            {
              "internalType": "uint256",
              "name": "oop",
              "type": "uint256"
            },
            {
              "internalType": "uint256",
              "name": "pcc",
              "type": "uint256"
            },
            {
              "internalType": "uint256",
              "name": "foop",
              "type": "uint256"
            },
            {
              "internalType": "uint256",
              "name": "nonReimbursement",
              "type": "uint256"
            }
          ],
          "internalType": "struct MedicalRecord.TreatmentDetail[]",
          "name": "_treatDetails",
          "type": "tuple[]"
        }
      ],
      "name": "addMedicalRecord",
      "outputs": [],
      "stateMutability": "nonpayable",
      "type": "function"
    },
    {
      "inputs": [
        {
          "internalType": "string",
          "name": "_receiptNumber",
          "type": "string"
        }
      ],
      "name": "getMedicalRecord",
      "outputs": [
        {
          "components": [
            {
              "internalType": "string",
              "name": "name",
              "type": "string"
            },
            {
              "internalType": "string",
              "name": "RRN",
              "type": "string"
            },
            {
              "internalType": "string",
              "name": "KCD",
              "type": "string"
            },
            {
              "internalType": "string",
              "name": "date",
              "type": "string"
            },
            {
              "internalType": "string",
              "name": "receiptNumber",
              "type": "string"
            },
            {
              "internalType": "uint256",
              "name": "totalOop",
              "type": "uint256"
            },
            {
              "internalType": "uint256",
              "name": "totalPcc",
              "type": "uint256"
            },
            {
              "internalType": "uint256",
              "name": "totalFoop",
              "type": "uint256"
            },
            {
              "internalType": "uint256",
              "name": "nonReimbursement",
              "type": "uint256"
            },
            {
              "components": [
                {
                  "internalType": "string",
                  "name": "category",
                  "type": "string"
                },
                {
                  "internalType": "string",
                  "name": "date",
                  "type": "string"
                },
                {
                  "internalType": "string",
                  "name": "treatCode",
                  "type": "string"
                },
                {
                  "internalType": "string",
                  "name": "description",
                  "type": "string"
                },
                {
                  "internalType": "uint256",
                  "name": "price",
                  "type": "uint256"
                },
                {
                  "internalType": "uint256",
                  "name": "oop",
                  "type": "uint256"
                },
                {
                  "internalType": "uint256",
                  "name": "pcc",
                  "type": "uint256"
                },
                {
                  "internalType": "uint256",
                  "name": "foop",
                  "type": "uint256"
                },
                {
                  "internalType": "uint256",
                  "name": "nonReimbursement",
                  "type": "uint256"
                }
              ],
              "internalType": "struct MedicalRecord.TreatmentDetail[]",
              "name": "treatDetails",
              "type": "tuple[]"
            },
            {
              "internalType": "uint256",
              "name": "treatDetailsCount",
              "type": "uint256"
            }
          ],
          "internalType": "struct MedicalRecord.MedicalRecordData",
          "name": "",
          "type": "tuple"
        }
      ],
      "stateMutability": "view",
      "type": "function",
      "constant": true
    },
    {
      "inputs": [],
      "name": "getMedicalRecords",
      "outputs": [
        {
          "components": [
            {
              "internalType": "string",
              "name": "name",
              "type": "string"
            },
            {
              "internalType": "string",
              "name": "RRN",
              "type": "string"
            },
            {
              "internalType": "string",
              "name": "KCD",
              "type": "string"
            },
            {
              "internalType": "string",
              "name": "date",
              "type": "string"
            },
            {
              "internalType": "string",
              "name": "receiptNumber",
              "type": "string"
            },
            {
              "internalType": "uint256",
              "name": "totalOop",
              "type": "uint256"
            },
            {
              "internalType": "uint256",
              "name": "totalPcc",
              "type": "uint256"
            },
            {
              "internalType": "uint256",
              "name": "totalFoop",
              "type": "uint256"
            },
            {
              "internalType": "uint256",
              "name": "nonReimbursement",
              "type": "uint256"
            },
            {
              "components": [
                {
                  "internalType": "string",
                  "name": "category",
                  "type": "string"
                },
                {
                  "internalType": "string",
                  "name": "date",
                  "type": "string"
                },
                {
                  "internalType": "string",
                  "name": "treatCode",
                  "type": "string"
                },
                {
                  "internalType": "string",
                  "name": "description",
                  "type": "string"
                },
                {
                  "internalType": "uint256",
                  "name": "price",
                  "type": "uint256"
                },
                {
                  "internalType": "uint256",
                  "name": "oop",
                  "type": "uint256"
                },
                {
                  "internalType": "uint256",
                  "name": "pcc",
                  "type": "uint256"
                },
                {
                  "internalType": "uint256",
                  "name": "foop",
                  "type": "uint256"
                },
                {
                  "internalType": "uint256",
                  "name": "nonReimbursement",
                  "type": "uint256"
                }
              ],
              "internalType": "struct MedicalRecord.TreatmentDetail[]",
              "name": "treatDetails",
              "type": "tuple[]"
            },
            {
              "internalType": "uint256",
              "name": "treatDetailsCount",
              "type": "uint256"
            }
          ],
          "internalType": "struct MedicalRecord.MedicalRecordData[]",
          "name": "",
          "type": "tuple[]"
        }
      ],
      "stateMutability": "view",
      "type": "function",
      "constant": true
    },
    {
      "inputs": [
        {
          "internalType": "uint256",
          "name": "page",
          "type": "uint256"
        },
        {
          "internalType": "uint256",
          "name": "pageSize",
          "type": "uint256"
        },
        {
          "internalType": "uint256",
          "name": "curCount",
          "type": "uint256"
        }
      ],
      "name": "getPagedMedicalRecords",
      "outputs": [
        {
          "components": [
            {
              "internalType": "string",
              "name": "name",
              "type": "string"
            },
            {
              "internalType": "string",
              "name": "RRN",
              "type": "string"
            },
            {
              "internalType": "string",
              "name": "KCD",
              "type": "string"
            },
            {
              "internalType": "string",
              "name": "date",
              "type": "string"
            },
            {
              "internalType": "string",
              "name": "receiptNumber",
              "type": "string"
            },
            {
              "internalType": "uint256",
              "name": "totalOop",
              "type": "uint256"
            },
            {
              "internalType": "uint256",
              "name": "totalPcc",
              "type": "uint256"
            },
            {
              "internalType": "uint256",
              "name": "totalFoop",
              "type": "uint256"
            },
            {
              "internalType": "uint256",
              "name": "nonReimbursement",
              "type": "uint256"
            },
            {
              "components": [
                {
                  "internalType": "string",
                  "name": "category",
                  "type": "string"
                },
                {
                  "internalType": "string",
                  "name": "date",
                  "type": "string"
                },
                {
                  "internalType": "string",
                  "name": "treatCode",
                  "type": "string"
                },
                {
                  "internalType": "string",
                  "name": "description",
                  "type": "string"
                },
                {
                  "internalType": "uint256",
                  "name": "price",
                  "type": "uint256"
                },
                {
                  "internalType": "uint256",
                  "name": "oop",
                  "type": "uint256"
                },
                {
                  "internalType": "uint256",
                  "name": "pcc",
                  "type": "uint256"
                },
                {
                  "internalType": "uint256",
                  "name": "foop",
                  "type": "uint256"
                },
                {
                  "internalType": "uint256",
                  "name": "nonReimbursement",
                  "type": "uint256"
                }
              ],
              "internalType": "struct MedicalRecord.TreatmentDetail[]",
              "name": "treatDetails",
              "type": "tuple[]"
            },
            {
              "internalType": "uint256",
              "name": "treatDetailsCount",
              "type": "uint256"
            }
          ],
          "internalType": "struct MedicalRecord.MedicalRecordData[]",
          "name": "",
          "type": "tuple[]"
        }
      ],
      "stateMutability": "view",
      "type": "function",
      "constant": true
    },
    {
      "inputs": [
        {
          "internalType": "string",
          "name": "_receiptNumber",
          "type": "string"
        }
      ],
      "name": "deleteMedicalRecord",
      "outputs": [],
      "stateMutability": "nonpayable",
      "type": "function"
    },
    {
      "inputs": [],
      "name": "isOwner",
      "outputs": [
        {
          "internalType": "bool",
          "name": "",
          "type": "bool"
        }
      ],
      "stateMutability": "view",
      "type": "function",
      "constant": true
    }
  ],
  "bytecode": "0x608060405234801561001057600080fd5b506136cf806100206000396000f3fe608060405234801561001057600080fd5b506004361061007d5760003560e01c80638f32d59b1161005b5780638f32d59b146100ec578063cc368d531461010a578063d7b11db21461013a578063e963bc96146101565761007d565b80630730760f146100825780632191ff9a1461009e5780636aea20d3146100ce575b600080fd5b61009c600480360381019061009791906122ce565b610174565b005b6100b860048036038101906100b39190612455565b610506565b6040516100c591906128af565b60405180910390f35b6100d6610d55565b6040516100e391906128af565b60405180910390f35b6100f4611427565b60405161010191906128ec565b60405180910390f35b610124600480360381019061011f9190612907565b611495565b6040516101319190612a62565b60405180910390f35b610154600480360381019061014f9190612907565b611ab4565b005b61015e611c1f565b60405161016b9190612a93565b60405180910390f35b6040518060400160405280600381526020017f4a30390000000000000000000000000000000000000000000000000000000000815250805190602001208880519060200120146101f9576040517f08c379a00000000000000000000000000000000000000000000000000000000081526004016101f090612b0b565b60405180910390fd5b6000808760405161020a9190612b67565b9081526020016040518091039020600001805461022690612bad565b905014610268576040517f08c379a000000000000000000000000000000000000000000000000000000000815260040161025f90612c2a565b60405180910390fd5b600080876040516102799190612b67565b908152602001604051809103902090508a81600001908161029a9190612df6565b50898160010190816102ac9190612df6565b50888160020190816102be9190612df6565b50878160030190816102d09190612df6565b50868160040190816102e29190612df6565b5085816005018190555084816006018190555083816007018190555082816008018190555060005b82518110156103fb578160090183828151811061032a57610329612ec8565b5b6020026020010151908060018154018082558091505060019003906000526020600020906009020160009091909190915060008201518160000190816103709190612df6565b5060208201518160010190816103869190612df6565b50604082015181600201908161039c9190612df6565b5060608201518160030190816103b29190612df6565b506080820151816004015560a0820151816005015560c0820151816006015560e082015181600701556101008201518160080155505080806103f390612f26565b91505061030a565b50815181600a018190555060028790806001815401808255809150506001900390600052602060002001600090919091909150908161043a9190612df6565b506001600081548092919061044e90612f26565b9190505550336003886040516104649190612b67565b908152602001604051809103902060006101000a81548173ffffffffffffffffffffffffffffffffffffffff021916908373ffffffffffffffffffffffffffffffffffffffff1602179055507fab6fb1d1889630ca2a543375ed4981bfdd33261754f524d5fafd7490ebfcc1de8b8b8b8b8b8b8b8b8b8b6040516104f19a9998979695949392919061302d565b60405180910390a15050505050505050505050565b606060008314806105175750600084145b1561057857600067ffffffffffffffff81111561053757610536611f2d565b5b60405190808252806020026020018201604052801561057057816020015b61055d611da4565b8152602001906001900390816105555790505b509050610d4e565b818360018661058791906130f3565b6105919190613127565b106105f257600067ffffffffffffffff8111156105b1576105b0611f2d565b5b6040519080825280602002602001820160405280156105ea57816020015b6105d7611da4565b8152602001906001900390816105cf5790505b509050610d4e565b600060018460018761060491906130f3565b61060e9190613127565b8461061991906130f3565b61062391906130f3565b9050600060018561063491906130f3565b82101561064257600061065b565b60018561064f91906130f3565b8261065a91906130f3565b5b905060006001828461066d91906130f3565b6106779190613181565b905060008167ffffffffffffffff81111561069557610694611f2d565b5b6040519080825280602002602001820160405280156106ce57816020015b6106bb611da4565b8152602001906001900390816106b35790505b50905060005b82811015610d45576000600282876106ec91906130f3565b815481106106fd576106fc612ec8565b5b90600052602060002001604051610714919061325a565b90815260200160405180910390206040518061016001604052908160008201805461073e90612bad565b80601f016020809104026020016040519081016040528092919081815260200182805461076a90612bad565b80156107b75780601f1061078c576101008083540402835291602001916107b7565b820191906000526020600020905b81548152906001019060200180831161079a57829003601f168201915b505050505081526020016001820180546107d090612bad565b80601f01602080910402602001604051908101604052809291908181526020018280546107fc90612bad565b80156108495780601f1061081e57610100808354040283529160200191610849565b820191906000526020600020905b81548152906001019060200180831161082c57829003601f168201915b5050505050815260200160028201805461086290612bad565b80601f016020809104026020016040519081016040528092919081815260200182805461088e90612bad565b80156108db5780601f106108b0576101008083540402835291602001916108db565b820191906000526020600020905b8154815290600101906020018083116108be57829003601f168201915b505050505081526020016003820180546108f490612bad565b80601f016020809104026020016040519081016040528092919081815260200182805461092090612bad565b801561096d5780601f106109425761010080835404028352916020019161096d565b820191906000526020600020905b81548152906001019060200180831161095057829003601f168201915b5050505050815260200160048201805461098690612bad565b80601f01602080910402602001604051908101604052809291908181526020018280546109b290612bad565b80156109ff5780601f106109d4576101008083540402835291602001916109ff565b820191906000526020600020905b8154815290600101906020018083116109e257829003601f168201915b505050505081526020016005820154815260200160068201548152602001600782015481526020016008820154815260200160098201805480602002602001604051908101604052809291908181526020016000905b82821015610d02578382906000526020600020906009020160405180610120016040529081600082018054610a8990612bad565b80601f0160208091040260200160405190810160405280929190818152602001828054610ab590612bad565b8015610b025780601f10610ad757610100808354040283529160200191610b02565b820191906000526020600020905b815481529060010190602001808311610ae557829003601f168201915b50505050508152602001600182018054610b1b90612bad565b80601f0160208091040260200160405190810160405280929190818152602001828054610b4790612bad565b8015610b945780601f10610b6957610100808354040283529160200191610b94565b820191906000526020600020905b815481529060010190602001808311610b7757829003601f168201915b50505050508152602001600282018054610bad90612bad565b80601f0160208091040260200160405190810160405280929190818152602001828054610bd990612bad565b8015610c265780601f10610bfb57610100808354040283529160200191610c26565b820191906000526020600020905b815481529060010190602001808311610c0957829003601f168201915b50505050508152602001600382018054610c3f90612bad565b80601f0160208091040260200160405190810160405280929190818152602001828054610c6b90612bad565b8015610cb85780601f10610c8d57610100808354040283529160200191610cb8565b820191906000526020600020905b815481529060010190602001808311610c9b57829003601f168201915b505050505081526020016004820154815260200160058201548152602001600682015481526020016007820154815260200160088201548152505081526020019060010190610a55565b505050508152602001600a82015481525050828281518110610d2757610d26612ec8565b5b60200260200101819052508080610d3d90612f26565b9150506106d4565b50809450505050505b9392505050565b6060600060015467ffffffffffffffff811115610d7557610d74611f2d565b5b604051908082528060200260200182016040528015610dae57816020015b610d9b611da4565b815260200190600190039081610d935790505b50905060005b60028054905081101561141f57600060028281548110610dd757610dd6612ec8565b5b90600052602060002001604051610dee919061325a565b908152602001604051809103902060405180610160016040529081600082018054610e1890612bad565b80601f0160208091040260200160405190810160405280929190818152602001828054610e4490612bad565b8015610e915780601f10610e6657610100808354040283529160200191610e91565b820191906000526020600020905b815481529060010190602001808311610e7457829003601f168201915b50505050508152602001600182018054610eaa90612bad565b80601f0160208091040260200160405190810160405280929190818152602001828054610ed690612bad565b8015610f235780601f10610ef857610100808354040283529160200191610f23565b820191906000526020600020905b815481529060010190602001808311610f0657829003601f168201915b50505050508152602001600282018054610f3c90612bad565b80601f0160208091040260200160405190810160405280929190818152602001828054610f6890612bad565b8015610fb55780601f10610f8a57610100808354040283529160200191610fb5565b820191906000526020600020905b815481529060010190602001808311610f9857829003601f168201915b50505050508152602001600382018054610fce90612bad565b80601f0160208091040260200160405190810160405280929190818152602001828054610ffa90612bad565b80156110475780601f1061101c57610100808354040283529160200191611047565b820191906000526020600020905b81548152906001019060200180831161102a57829003601f168201915b5050505050815260200160048201805461106090612bad565b80601f016020809104026020016040519081016040528092919081815260200182805461108c90612bad565b80156110d95780601f106110ae576101008083540402835291602001916110d9565b820191906000526020600020905b8154815290600101906020018083116110bc57829003601f168201915b505050505081526020016005820154815260200160068201548152602001600782015481526020016008820154815260200160098201805480602002602001604051908101604052809291908181526020016000905b828210156113dc57838290600052602060002090600902016040518061012001604052908160008201805461116390612bad565b80601f016020809104026020016040519081016040528092919081815260200182805461118f90612bad565b80156111dc5780601f106111b1576101008083540402835291602001916111dc565b820191906000526020600020905b8154815290600101906020018083116111bf57829003601f168201915b505050505081526020016001820180546111f590612bad565b80601f016020809104026020016040519081016040528092919081815260200182805461122190612bad565b801561126e5780601f106112435761010080835404028352916020019161126e565b820191906000526020600020905b81548152906001019060200180831161125157829003601f168201915b5050505050815260200160028201805461128790612bad565b80601f01602080910402602001604051908101604052809291908181526020018280546112b390612bad565b80156113005780601f106112d557610100808354040283529160200191611300565b820191906000526020600020905b8154815290600101906020018083116112e357829003601f168201915b5050505050815260200160038201805461131990612bad565b80601f016020809104026020016040519081016040528092919081815260200182805461134590612bad565b80156113925780601f1061136757610100808354040283529160200191611392565b820191906000526020600020905b81548152906001019060200180831161137557829003601f168201915b50505050508152602001600482015481526020016005820154815260200160068201548152602001600782015481526020016008820154815250508152602001906001019061112f565b505050508152602001600a8201548152505082828151811061140157611400612ec8565b5b6020026020010181905250808061141790612f26565b915050610db4565b508091505090565b60006040518060600160405280602a8152602001613670602a91396040516020016114529190612b67565b604051602081830303815290604052805190602001203360405160200161147991906132eb565b6040516020818303038152906040528051906020012014905090565b61149d611da4565b6000826040516114ad9190612b67565b9081526020016040518091039020604051806101600160405290816000820180546114d790612bad565b80601f016020809104026020016040519081016040528092919081815260200182805461150390612bad565b80156115505780601f1061152557610100808354040283529160200191611550565b820191906000526020600020905b81548152906001019060200180831161153357829003601f168201915b5050505050815260200160018201805461156990612bad565b80601f016020809104026020016040519081016040528092919081815260200182805461159590612bad565b80156115e25780601f106115b7576101008083540402835291602001916115e2565b820191906000526020600020905b8154815290600101906020018083116115c557829003601f168201915b505050505081526020016002820180546115fb90612bad565b80601f016020809104026020016040519081016040528092919081815260200182805461162790612bad565b80156116745780601f1061164957610100808354040283529160200191611674565b820191906000526020600020905b81548152906001019060200180831161165757829003601f168201915b5050505050815260200160038201805461168d90612bad565b80601f01602080910402602001604051908101604052809291908181526020018280546116b990612bad565b80156117065780601f106116db57610100808354040283529160200191611706565b820191906000526020600020905b8154815290600101906020018083116116e957829003601f168201915b5050505050815260200160048201805461171f90612bad565b80601f016020809104026020016040519081016040528092919081815260200182805461174b90612bad565b80156117985780601f1061176d57610100808354040283529160200191611798565b820191906000526020600020905b81548152906001019060200180831161177b57829003601f168201915b505050505081526020016005820154815260200160068201548152602001600782015481526020016008820154815260200160098201805480602002602001604051908101604052809291908181526020016000905b82821015611a9b57838290600052602060002090600902016040518061012001604052908160008201805461182290612bad565b80601f016020809104026020016040519081016040528092919081815260200182805461184e90612bad565b801561189b5780601f106118705761010080835404028352916020019161189b565b820191906000526020600020905b81548152906001019060200180831161187e57829003601f168201915b505050505081526020016001820180546118b490612bad565b80601f01602080910402602001604051908101604052809291908181526020018280546118e090612bad565b801561192d5780601f106119025761010080835404028352916020019161192d565b820191906000526020600020905b81548152906001019060200180831161191057829003601f168201915b5050505050815260200160028201805461194690612bad565b80601f016020809104026020016040519081016040528092919081815260200182805461197290612bad565b80156119bf5780601f10611994576101008083540402835291602001916119bf565b820191906000526020600020905b8154815290600101906020018083116119a257829003601f168201915b505050505081526020016003820180546119d890612bad565b80601f0160208091040260200160405190810160405280929190818152602001828054611a0490612bad565b8015611a515780601f10611a2657610100808354040283529160200191611a51565b820191906000526020600020905b815481529060010190602001808311611a3457829003601f168201915b5050505050815260200160048201548152602001600582015481526020016006820154815260200160078201548152602001600882015481525050815260200190600101906117ee565b505050508152602001600a820154815250509050919050565b60008082604051611ac59190612b67565b90815260200160405180910390206000018054611ae190612bad565b905003611b23576040517f08c379a0000000000000000000000000000000000000000000000000000000008152600401611b1a90613352565b60405180910390fd5b611b2b611427565b611b6a576040517f08c379a0000000000000000000000000000000000000000000000000000000008152600401611b61906133be565b60405180910390fd5b600081604051611b7a9190612b67565b908152602001604051809103902060008082016000611b999190611dfe565b600182016000611ba99190611dfe565b600282016000611bb99190611dfe565b600382016000611bc99190611dfe565b600482016000611bd99190611dfe565b6005820160009055600682016000905560078201600090556008820160009055600982016000611c099190611e3e565b600a8201600090555050611c1c81611c25565b50565b60015481565b6000611c3082611cf2565b90506001600280549050611c4491906130f3565b811015611ca65760026001600280549050611c5f91906130f3565b81548110611c7057611c6f612ec8565b5b9060005260206000200160028281548110611c8e57611c8d612ec8565b5b906000526020600020019081611ca49190613409565b505b6002805480611cb857611cb76134f1565b5b600190038181906000526020600020016000611cd49190611dfe565b905560016000815480929190611ce990613520565b91905055505050565b600080600090505b600280549050811015611d6357828051906020012060028281548110611d2357611d22612ec8565b5b90600052602060002001604051611d3a91906135ec565b604051809103902003611d505780915050611d9f565b8080611d5b90612f26565b915050611cfa565b506040517f08c379a0000000000000000000000000000000000000000000000000000000008152600401611d969061364f565b60405180910390fd5b919050565b60405180610160016040528060608152602001606081526020016060815260200160608152602001606081526020016000815260200160008152602001600081526020016000815260200160608152602001600081525090565b508054611e0a90612bad565b6000825580601f10611e1c5750611e3b565b601f016020900490600052602060002090810190611e3a9190611e62565b5b50565b5080546000825560090290600052602060002090810190611e5f9190611e7f565b50565b5b80821115611e7b576000816000905550600101611e63565b5090565b5b80821115611efa5760008082016000611e999190611dfe565b600182016000611ea99190611dfe565b600282016000611eb99190611dfe565b600382016000611ec99190611dfe565b6004820160009055600582016000905560068201600090556007820160009055600882016000905550600901611e80565b5090565b6000604051905090565b600080fd5b600080fd5b600080fd5b600080fd5b6000601f19601f8301169050919050565b7f4e487b7100000000000000000000000000000000000000000000000000000000600052604160045260246000fd5b611f6582611f1c565b810181811067ffffffffffffffff82111715611f8457611f83611f2d565b5b80604052505050565b6000611f97611efe565b9050611fa38282611f5c565b919050565b600067ffffffffffffffff821115611fc357611fc2611f2d565b5b611fcc82611f1c565b9050602081019050919050565b82818337600083830152505050565b6000611ffb611ff684611fa8565b611f8d565b90508281526020810184848401111561201757612016611f17565b5b612022848285611fd9565b509392505050565b600082601f83011261203f5761203e611f12565b5b813561204f848260208601611fe8565b91505092915050565b6000819050919050565b61206b81612058565b811461207657600080fd5b50565b60008135905061208881612062565b92915050565b600067ffffffffffffffff8211156120a9576120a8611f2d565b5b602082029050602081019050919050565b600080fd5b600080fd5b600080fd5b600061012082840312156120e0576120df6120bf565b5b6120eb610120611f8d565b9050600082013567ffffffffffffffff81111561210b5761210a6120c4565b5b6121178482850161202a565b600083015250602082013567ffffffffffffffff81111561213b5761213a6120c4565b5b6121478482850161202a565b602083015250604082013567ffffffffffffffff81111561216b5761216a6120c4565b5b6121778482850161202a565b604083015250606082013567ffffffffffffffff81111561219b5761219a6120c4565b5b6121a78482850161202a565b60608301525060806121bb84828501612079565b60808301525060a06121cf84828501612079565b60a08301525060c06121e384828501612079565b60c08301525060e06121f784828501612079565b60e08301525061010061220c84828501612079565b6101008301525092915050565b600061222c6122278461208e565b611f8d565b9050808382526020820190506020840283018581111561224f5761224e6120ba565b5b835b8181101561229657803567ffffffffffffffff81111561227457612273611f12565b5b80860161228189826120c9565b85526020850194505050602081019050612251565b5050509392505050565b600082601f8301126122b5576122b4611f12565b5b81356122c5848260208601612219565b91505092915050565b6000806000806000806000806000806101408b8d0312156122f2576122f1611f08565b5b60008b013567ffffffffffffffff8111156123105761230f611f0d565b5b61231c8d828e0161202a565b9a505060208b013567ffffffffffffffff81111561233d5761233c611f0d565b5b6123498d828e0161202a565b99505060408b013567ffffffffffffffff81111561236a57612369611f0d565b5b6123768d828e0161202a565b98505060608b013567ffffffffffffffff81111561239757612396611f0d565b5b6123a38d828e0161202a565b97505060808b013567ffffffffffffffff8111156123c4576123c3611f0d565b5b6123d08d828e0161202a565b96505060a06123e18d828e01612079565b95505060c06123f28d828e01612079565b94505060e06124038d828e01612079565b9350506101006124158d828e01612079565b9250506101208b013567ffffffffffffffff81111561243757612436611f0d565b5b6124438d828e016122a0565b9150509295989b9194979a5092959850565b60008060006060848603121561246e5761246d611f08565b5b600061247c86828701612079565b935050602061248d86828701612079565b925050604061249e86828701612079565b9150509250925092565b600081519050919050565b600082825260208201905092915050565b6000819050602082019050919050565b600081519050919050565b600082825260208201905092915050565b60005b8381101561250e5780820151818401526020810190506124f3565b8381111561251d576000848401525b50505050565b600061252e826124d4565b61253881856124df565b93506125488185602086016124f0565b61255181611f1c565b840191505092915050565b61256581612058565b82525050565b600081519050919050565b600082825260208201905092915050565b6000819050602082019050919050565b60006101208301600083015184820360008601526125b58282612523565b915050602083015184820360208601526125cf8282612523565b915050604083015184820360408601526125e98282612523565b915050606083015184820360608601526126038282612523565b9150506080830151612618608086018261255c565b5060a083015161262b60a086018261255c565b5060c083015161263e60c086018261255c565b5060e083015161265160e086018261255c565b5061010083015161266661010086018261255c565b508091505092915050565b600061267d8383612597565b905092915050565b6000602082019050919050565b600061269d8261256b565b6126a78185612576565b9350836020820285016126b985612587565b8060005b858110156126f557848403895281516126d68582612671565b94506126e183612685565b925060208a019950506001810190506126bd565b50829750879550505050505092915050565b60006101608301600083015184820360008601526127258282612523565b9150506020830151848203602086015261273f8282612523565b915050604083015184820360408601526127598282612523565b915050606083015184820360608601526127738282612523565b9150506080830151848203608086015261278d8282612523565b91505060a08301516127a260a086018261255c565b5060c08301516127b560c086018261255c565b5060e08301516127c860e086018261255c565b506101008301516127dd61010086018261255c565b506101208301518482036101208601526127f78282612692565b91505061014083015161280e61014086018261255c565b508091505092915050565b60006128258383612707565b905092915050565b6000602082019050919050565b6000612845826124a8565b61284f81856124b3565b935083602082028501612861856124c4565b8060005b8581101561289d578484038952815161287e8582612819565b94506128898361282d565b925060208a01995050600181019050612865565b50829750879550505050505092915050565b600060208201905081810360008301526128c9818461283a565b905092915050565b60008115159050919050565b6128e6816128d1565b82525050565b600060208201905061290160008301846128dd565b92915050565b60006020828403121561291d5761291c611f08565b5b600082013567ffffffffffffffff81111561293b5761293a611f0d565b5b6129478482850161202a565b91505092915050565b600061016083016000830151848203600086015261296e8282612523565b915050602083015184820360208601526129888282612523565b915050604083015184820360408601526129a28282612523565b915050606083015184820360608601526129bc8282612523565b915050608083015184820360808601526129d68282612523565b91505060a08301516129eb60a086018261255c565b5060c08301516129fe60c086018261255c565b5060e0830151612a1160e086018261255c565b50610100830151612a2661010086018261255c565b50610120830151848203610120860152612a408282612692565b915050610140830151612a5761014086018261255c565b508091505092915050565b60006020820190508181036000830152612a7c8184612950565b905092915050565b612a8d81612058565b82525050565b6000602082019050612aa86000830184612a84565b92915050565b600082825260208201905092915050565b7f4b434420646f6573206e6f74206d617463680000000000000000000000000000600082015250565b6000612af5601283612aae565b9150612b0082612abf565b602082019050919050565b60006020820190508181036000830152612b2481612ae8565b9050919050565b600081905092915050565b6000612b41826124d4565b612b4b8185612b2b565b9350612b5b8185602086016124f0565b80840191505092915050565b6000612b738284612b36565b915081905092915050565b7f4e487b7100000000000000000000000000000000000000000000000000000000600052602260045260246000fd5b60006002820490506001821680612bc557607f821691505b602082108103612bd857612bd7612b7e565b5b50919050565b7f52656365697074206e756d62657220616c726561647920657869737473000000600082015250565b6000612c14601d83612aae565b9150612c1f82612bde565b602082019050919050565b60006020820190508181036000830152612c4381612c07565b9050919050565b60008190508160005260206000209050919050565b60006020601f8301049050919050565b600082821b905092915050565b600060088302612cac7fffffffffffffffffffffffffffffffffffffffffffffffffffffffffffffffff82612c6f565b612cb68683612c6f565b95508019841693508086168417925050509392505050565b6000819050919050565b6000612cf3612cee612ce984612058565b612cce565b612058565b9050919050565b6000819050919050565b612d0d83612cd8565b612d21612d1982612cfa565b848454612c7c565b825550505050565b600090565b612d36612d29565b612d41818484612d04565b505050565b5b81811015612d6557612d5a600082612d2e565b600181019050612d47565b5050565b601f821115612daa57612d7b81612c4a565b612d8484612c5f565b81016020851015612d93578190505b612da7612d9f85612c5f565b830182612d46565b50505b505050565b600082821c905092915050565b6000612dcd60001984600802612daf565b1980831691505092915050565b6000612de68383612dbc565b9150826002028217905092915050565b612dff826124d4565b67ffffffffffffffff811115612e1857612e17611f2d565b5b612e228254612bad565b612e2d828285612d69565b600060209050601f831160018114612e605760008415612e4e578287015190505b612e588582612dda565b865550612ec0565b601f198416612e6e86612c4a565b60005b82811015612e9657848901518255600182019150602085019450602081019050612e71565b86831015612eb35784890151612eaf601f891682612dbc565b8355505b6001600288020188555050505b505050505050565b7f4e487b7100000000000000000000000000000000000000000000000000000000600052603260045260246000fd5b7f4e487b7100000000000000000000000000000000000000000000000000000000600052601160045260246000fd5b6000612f3182612058565b91507fffffffffffffffffffffffffffffffffffffffffffffffffffffffffffffffff8203612f6357612f62612ef7565b5b600182019050919050565b6000612f79826124d4565b612f838185612aae565b9350612f938185602086016124f0565b612f9c81611f1c565b840191505092915050565b600082825260208201905092915050565b6000612fc38261256b565b612fcd8185612fa7565b935083602082028501612fdf85612587565b8060005b8581101561301b5784840389528151612ffc8582612671565b945061300783612685565b925060208a01995050600181019050612fe3565b50829750879550505050505092915050565b6000610140820190508181036000830152613048818d612f6e565b9050818103602083015261305c818c612f6e565b90508181036040830152613070818b612f6e565b90508181036060830152613084818a612f6e565b905081810360808301526130988189612f6e565b90506130a760a0830188612a84565b6130b460c0830187612a84565b6130c160e0830186612a84565b6130cf610100830185612a84565b8181036101208301526130e28184612fb8565b90509b9a5050505050505050505050565b60006130fe82612058565b915061310983612058565b92508282101561311c5761311b612ef7565b5b828203905092915050565b600061313282612058565b915061313d83612058565b9250817fffffffffffffffffffffffffffffffffffffffffffffffffffffffffffffffff048311821515161561317657613175612ef7565b5b828202905092915050565b600061318c82612058565b915061319783612058565b9250827fffffffffffffffffffffffffffffffffffffffffffffffffffffffffffffffff038211156131cc576131cb612ef7565b5b828201905092915050565b600081546131e481612bad565b6131ee8186612b2b565b94506001821660008114613209576001811461321e57613251565b60ff1983168652811515820286019350613251565b61322785612c4a565b60005b838110156132495781548189015260018201915060208101905061322a565b838801955050505b50505092915050565b600061326682846131d7565b915081905092915050565b600073ffffffffffffffffffffffffffffffffffffffff82169050919050565b600061329c82613271565b9050919050565b60008160601b9050919050565b60006132bb826132a3565b9050919050565b60006132cd826132b0565b9050919050565b6132e56132e082613291565b6132c2565b82525050565b60006132f782846132d4565b60148201915081905092915050565b7f4e6f207265636f726420666f756e6420746f2064656c6574652e000000000000600082015250565b600061333c601a83612aae565b915061334782613306565b602082019050919050565b6000602082019050818103600083015261336b8161332f565b9050919050565b7f556e617574686f72697a6564206163636573732e000000000000000000000000600082015250565b60006133a8601483612aae565b91506133b382613372565b602082019050919050565b600060208201905081810360008301526133d78161339b565b9050919050565b6000815490506133ed81612bad565b9050919050565b60008190508160005260206000209050919050565b8181036134175750506134ef565b613420826133de565b67ffffffffffffffff81111561343957613438611f2d565b5b6134438254612bad565b61344e828285612d69565b6000601f83116001811461347d576000841561346b578287015490505b6134758582612dda565b8655506134e8565b601f19841661348b876133f4565b965061349686612c4a565b60005b828110156134be57848901548255600182019150600185019450602081019050613499565b868310156134db57848901546134d7601f891682612dbc565b8355505b6001600288020188555050505b5050505050505b565b7f4e487b7100000000000000000000000000000000000000000000000000000000600052603160045260246000fd5b600061352b82612058565b91506000820361353e5761353d612ef7565b5b600182039050919050565b600081905092915050565b60008190508160005260206000209050919050565b6000815461357681612bad565b6135808186613549565b9450600182166000811461359b57600181146135b0576135e3565b60ff19831686528115158202860193506135e3565b6135b985613554565b60005b838110156135db578154818901526001820191506020810190506135bc565b838801955050505b50505092915050565b60006135f88284613569565b915081905092915050565b7f52656365697074206e756d626572206e6f7420666f756e642e00000000000000600082015250565b6000613639601983612aae565b915061364482613603565b602082019050919050565b600060208201905081810360008301526136688161362c565b905091905056fe307832386361653965353764386464333465623634373235323666303464346331326666613934333262a2646970667358221220db714e8043b85b5810695081a2bc84327986ca6a7c3f0f0f6acc3a96cd527c0f64736f6c634300080f0033",
  "immutableReferences": {},
  "source": "// SPDX-License-Identifier: MIT\npragma solidity ^0.8.15;\n\ncontract MedicalRecord {\n    //  \n    struct TreatmentDetail {\n        string category;\n        string date;\n        string treatCode;\n        string description;\n        uint256 price;\n        uint256 oop;\n        uint256 pcc;\n        uint256 foop;\n        uint256 nonReimbursement;\n    }\n    //  \n    struct MedicalRecordData {\n        string name;\n        string RRN;\n        string KCD;\n        string date;\n        string receiptNumber;\n        uint256 totalOop;\n        uint256 totalPcc;\n        uint256 totalFoop;\n        uint256 nonReimbursement;\n        TreatmentDetail[] treatDetails;\n        uint256 treatDetailsCount;\n    }\n\n    // \n    string private constant DEFAULT_KCD = \"J09\"; // Default KCD value\n    string private constant DEFAULT_owner = \"0x28cae9e57d8dd34eb6472526f04d4c12ffa9432b\";\n    mapping(string => MedicalRecordData) private medicalRecords;\n    uint256 public medicalRecordsCount;\n    string[] private medicalRecordKeys;\n    mapping(string => address) private recordOwners; // Store record owners\n\n    //   \n    event MedicalRecordSet(\n        string name,\n        string RRN,\n        string KCD,\n        string date,\n        string receiptNumber,\n        uint256 totalOop,\n        uint256 totalPcc,\n        uint256 totalFoop,\n        uint256 nonReimbursement,\n        TreatmentDetail[] treatDetails\n    );\n\n    // \n    //    \n    function addMedicalRecord(\n        string memory _name,\n        string memory _RRN,\n        string memory _KCD,\n        string memory _date,\n        string memory _receiptNumber,\n        uint256 _totalOop,\n        uint256 _totalPcc,\n        uint256 _totalFoop,\n        uint256 _nonReimbursement,\n        TreatmentDetail[] memory _treatDetails\n    ) public {\n        require(keccak256(bytes(_KCD)) == keccak256(bytes(DEFAULT_KCD)), \"KCD does not match\");\n        require(bytes(medicalRecords[_receiptNumber].name).length == 0, \"Receipt number already exists\");\n\n        MedicalRecordData storage record = medicalRecords[_receiptNumber];\n        record.name = _name;\n        record.RRN = _RRN;\n        record.KCD = _KCD;\n        record.date = _date;\n        record.receiptNumber = _receiptNumber;\n        record.totalOop = _totalOop;\n        record.totalPcc = _totalPcc;\n        record.totalFoop = _totalFoop;\n        record.nonReimbursement = _nonReimbursement;\n\n        for (uint256 i = 0; i < _treatDetails.length; i++) {\n            record.treatDetails.push(_treatDetails[i]);\n        }\n        record.treatDetailsCount = _treatDetails.length;\n\n        medicalRecordKeys.push(_receiptNumber);\n        medicalRecordsCount++;\n        recordOwners[_receiptNumber] = msg.sender;\n\n        emit MedicalRecordSet(_name, _RRN, _KCD, _date, _receiptNumber, _totalOop, _totalPcc, _totalFoop, _nonReimbursement, _treatDetails);\n    }\n\n    //    \n    function getMedicalRecord(string memory _receiptNumber) public view returns (MedicalRecordData memory) {\n        return medicalRecords[_receiptNumber];\n    }\n\n    //    \n    function getMedicalRecords() public view returns (MedicalRecordData[] memory) {\n        MedicalRecordData[] memory records = new MedicalRecordData[](medicalRecordsCount);\n        for (uint256 i = 0; i < medicalRecordKeys.length; i++) {\n            records[i] = medicalRecords[medicalRecordKeys[i]];\n        }\n        return records;\n    }\n\n    //     , \n    function getPagedMedicalRecords(uint256 page, uint256 pageSize, uint256 curCount) public view returns (MedicalRecordData[] memory) {\n        if (pageSize == 0 || page == 0) {\n            return new MedicalRecordData[](0);\n        }\n\n        if ((page - 1) * pageSize >= curCount) {\n            return new MedicalRecordData[](0);\n        }\n\n        uint256 startIndex = curCount - (page - 1) * pageSize - 1;\n        uint256 endIndex = startIndex >= (pageSize - 1) ? startIndex - (pageSize - 1) : 0;\n\n        uint256 count = startIndex - endIndex + 1;\n        MedicalRecordData[] memory pageRecords = new MedicalRecordData[](count);\n        for (uint256 i = 0; i < count; i++) {\n            pageRecords[i] = medicalRecords[medicalRecordKeys[startIndex - i]];\n        }\n        return pageRecords;\n    }\n\n    //   \n    function deleteMedicalRecord(string memory _receiptNumber) public {\n        require(bytes(medicalRecords[_receiptNumber].name).length != 0, \"No record found to delete.\");\n        require(isOwner(), \"Unauthorized access.\");\n\n        delete medicalRecords[_receiptNumber];\n        removeKey(_receiptNumber);\n    }\n\n    // key \n    function removeKey(string memory _receiptNumber) private {\n        uint256 index = findIndex(_receiptNumber);\n        if (index < medicalRecordKeys.length - 1) {\n            medicalRecordKeys[index] = medicalRecordKeys[medicalRecordKeys.length - 1];\n        }\n        medicalRecordKeys.pop();\n        medicalRecordsCount--;\n    }\n\n    // key  \n    function findIndex(string memory _receiptNumber) private view returns (uint256) {\n        for (uint256 i = 0; i < medicalRecordKeys.length; i++) {\n            if (keccak256(bytes(medicalRecordKeys[i])) == keccak256(bytes(_receiptNumber))) {\n                return i;\n            }\n        }\n        revert(\"Receipt number not found.\");\n    }\n\n    //  \n    function isOwner() public view returns (bool) {\n\treturn keccak256(abi.encodePacked(msg.sender)) == keccak256(abi.encodePacked(DEFAULT_owner));\n    }\n}\n\n",
  "sourcePath": "/home/wkdcodms127/truffle-ca/contracts/MedicalRecord.sol",
  "compiler": {
    "name": "solc",
    "version": "0.8.15+commit.e14f2714.Emscripten.clang"
  },
  "schemaVersion": "3.4.8",
  "updatedAt": "2024-04-22T03:55:11.346Z",
  "networkType": "ethereum",
  "devdoc": {
    "kind": "dev",
    "methods": {},
    "version": 1
  },
  "userdoc": {
    "kind": "user",
    "methods": {},
    "version": 1
  }
}