{
  "contractName": "MedicalRecord",
  "abi": [
    {
      "anonymous": false,
      "inputs": [
        {
          "indexed": false,
          "internalType": "string",
          "name": "name",
          "type": "string"
        },
        {
          "indexed": false,
          "internalType": "string",
          "name": "RRN",
          "type": "string"
        },
        {
          "indexed": false,
          "internalType": "string",
          "name": "KCD",
          "type": "string"
        },
        {
          "indexed": false,
          "internalType": "string",
          "name": "date",
          "type": "string"
        },
        {
          "indexed": false,
          "internalType": "string",
          "name": "receiptNumber",
          "type": "string"
        },
        {
          "indexed": false,
          "internalType": "uint256",
          "name": "totalOop",
          "type": "uint256"
        },
        {
          "indexed": false,
          "internalType": "uint256",
          "name": "totalPcc",
          "type": "uint256"
        },
        {
          "indexed": false,
          "internalType": "uint256",
          "name": "totalFoop",
          "type": "uint256"
        },
        {
          "indexed": false,
          "internalType": "uint256",
          "name": "nonReimbursement",
          "type": "uint256"
        }
      ],
      "name": "MedicalRecordSet",
      "type": "event"
    },
    {
      "inputs": [],
      "name": "medicalRecordsCount",
      "outputs": [
        {
          "internalType": "uint256",
          "name": "",
          "type": "uint256"
        }
      ],
      "stateMutability": "view",
      "type": "function",
      "constant": true
    },
    {
      "inputs": [
        {
          "internalType": "string",
          "name": "_name",
          "type": "string"
        },
        {
          "internalType": "string",
          "name": "_RRN",
          "type": "string"
        },
        {
          "internalType": "string",
          "name": "_KCD",
          "type": "string"
        },
        {
          "internalType": "string",
          "name": "_date",
          "type": "string"
        },
        {
          "internalType": "string",
          "name": "_receiptNumber",
          "type": "string"
        },
        {
          "internalType": "uint256",
          "name": "_totalOop",
          "type": "uint256"
        },
        {
          "internalType": "uint256",
          "name": "_totalPcc",
          "type": "uint256"
        },
        {
          "internalType": "uint256",
          "name": "_totalFoop",
          "type": "uint256"
        },
        {
          "internalType": "uint256",
          "name": "_nonReimbursement",
          "type": "uint256"
        },
        {
          "components": [
            {
              "internalType": "string",
              "name": "category",
              "type": "string"
            },
            {
              "internalType": "string",
              "name": "date",
              "type": "string"
            },
            {
              "internalType": "string",
              "name": "treatCode",
              "type": "string"
            },
            {
              "internalType": "string",
              "name": "description",
              "type": "string"
            },
            {
              "internalType": "uint256",
              "name": "price",
              "type": "uint256"
            },
            {
              "internalType": "uint256",
              "name": "oop",
              "type": "uint256"
            },
            {
              "internalType": "uint256",
              "name": "pcc",
              "type": "uint256"
            },
            {
              "internalType": "uint256",
              "name": "foop",
              "type": "uint256"
            },
            {
              "internalType": "uint256",
              "name": "nonReimbursement",
              "type": "uint256"
            }
          ],
          "internalType": "struct MedicalRecord.TreatmentDetail[]",
          "name": "_treatDetails",
          "type": "tuple[]"
        }
      ],
      "name": "addMedicalRecord",
      "outputs": [],
      "stateMutability": "nonpayable",
      "type": "function"
    },
    {
      "inputs": [
        {
          "internalType": "string",
          "name": "_receiptNumber",
          "type": "string"
        }
      ],
      "name": "getMedicalRecord",
      "outputs": [
        {
          "components": [
            {
              "internalType": "string",
              "name": "name",
              "type": "string"
            },
            {
              "internalType": "string",
              "name": "RRN",
              "type": "string"
            },
            {
              "internalType": "string",
              "name": "KCD",
              "type": "string"
            },
            {
              "internalType": "string",
              "name": "date",
              "type": "string"
            },
            {
              "internalType": "string",
              "name": "receiptNumber",
              "type": "string"
            },
            {
              "internalType": "uint256",
              "name": "totalOop",
              "type": "uint256"
            },
            {
              "internalType": "uint256",
              "name": "totalPcc",
              "type": "uint256"
            },
            {
              "internalType": "uint256",
              "name": "totalFoop",
              "type": "uint256"
            },
            {
              "internalType": "uint256",
              "name": "nonReimbursement",
              "type": "uint256"
            },
            {
              "components": [
                {
                  "internalType": "string",
                  "name": "category",
                  "type": "string"
                },
                {
                  "internalType": "string",
                  "name": "date",
                  "type": "string"
                },
                {
                  "internalType": "string",
                  "name": "treatCode",
                  "type": "string"
                },
                {
                  "internalType": "string",
                  "name": "description",
                  "type": "string"
                },
                {
                  "internalType": "uint256",
                  "name": "price",
                  "type": "uint256"
                },
                {
                  "internalType": "uint256",
                  "name": "oop",
                  "type": "uint256"
                },
                {
                  "internalType": "uint256",
                  "name": "pcc",
                  "type": "uint256"
                },
                {
                  "internalType": "uint256",
                  "name": "foop",
                  "type": "uint256"
                },
                {
                  "internalType": "uint256",
                  "name": "nonReimbursement",
                  "type": "uint256"
                }
              ],
              "internalType": "struct MedicalRecord.TreatmentDetail[]",
              "name": "treatDetails",
              "type": "tuple[]"
            },
            {
              "internalType": "uint256",
              "name": "treatDetailsCount",
              "type": "uint256"
            }
          ],
          "internalType": "struct MedicalRecord.MedicalRecordData",
          "name": "",
          "type": "tuple"
        }
      ],
      "stateMutability": "view",
      "type": "function",
      "constant": true
    },
    {
      "inputs": [],
      "name": "getMedicalRecords",
      "outputs": [
        {
          "components": [
            {
              "internalType": "string",
              "name": "name",
              "type": "string"
            },
            {
              "internalType": "string",
              "name": "RRN",
              "type": "string"
            },
            {
              "internalType": "string",
              "name": "KCD",
              "type": "string"
            },
            {
              "internalType": "string",
              "name": "date",
              "type": "string"
            },
            {
              "internalType": "string",
              "name": "receiptNumber",
              "type": "string"
            },
            {
              "internalType": "uint256",
              "name": "totalOop",
              "type": "uint256"
            },
            {
              "internalType": "uint256",
              "name": "totalPcc",
              "type": "uint256"
            },
            {
              "internalType": "uint256",
              "name": "totalFoop",
              "type": "uint256"
            },
            {
              "internalType": "uint256",
              "name": "nonReimbursement",
              "type": "uint256"
            },
            {
              "components": [
                {
                  "internalType": "string",
                  "name": "category",
                  "type": "string"
                },
                {
                  "internalType": "string",
                  "name": "date",
                  "type": "string"
                },
                {
                  "internalType": "string",
                  "name": "treatCode",
                  "type": "string"
                },
                {
                  "internalType": "string",
                  "name": "description",
                  "type": "string"
                },
                {
                  "internalType": "uint256",
                  "name": "price",
                  "type": "uint256"
                },
                {
                  "internalType": "uint256",
                  "name": "oop",
                  "type": "uint256"
                },
                {
                  "internalType": "uint256",
                  "name": "pcc",
                  "type": "uint256"
                },
                {
                  "internalType": "uint256",
                  "name": "foop",
                  "type": "uint256"
                },
                {
                  "internalType": "uint256",
                  "name": "nonReimbursement",
                  "type": "uint256"
                }
              ],
              "internalType": "struct MedicalRecord.TreatmentDetail[]",
              "name": "treatDetails",
              "type": "tuple[]"
            },
            {
              "internalType": "uint256",
              "name": "treatDetailsCount",
              "type": "uint256"
            }
          ],
          "internalType": "struct MedicalRecord.MedicalRecordData[]",
          "name": "",
          "type": "tuple[]"
        }
      ],
      "stateMutability": "view",
      "type": "function",
      "constant": true
    }
  ],
  "bytecode": "0x608060405234801561001057600080fd5b506122fd806100206000396000f3fe608060405234801561001057600080fd5b506004361061004c5760003560e01c80630730760f146100515780636aea20d31461006d578063cc368d531461008b578063e963bc96146100bb575b600080fd5b61006b6004803603810190610066919061152d565b6100d9565b005b61007561040c565b6040516100829190611abb565b60405180910390f35b6100a560048036038101906100a09190611add565b610ade565b6040516100b29190611c38565b60405180910390f35b6100c36110fd565b6040516100d09190611c69565b60405180910390f35b6040518060400160405280600381526020017f4a303900000000000000000000000000000000000000000000000000000000008152508051906020012088805190602001201461015e576040517f08c379a000000000000000000000000000000000000000000000000000000000815260040161015590611ce1565b60405180910390fd5b6000808760405161016f9190611d3d565b9081526020016040518091039020600001805461018b90611d83565b9050146101cd576040517f08c379a00000000000000000000000000000000000000000000000000000000081526004016101c490611e00565b60405180910390fd5b600080876040516101de9190611d3d565b908152602001604051809103902090508a8160000190816101ff9190611fcc565b50898160010190816102119190611fcc565b50888160020190816102239190611fcc565b50878160030190816102359190611fcc565b50868160040190816102479190611fcc565b5085816005018190555084816006018190555083816007018190555082816008018190555060005b8251811015610360578160090183828151811061028f5761028e61209e565b5b6020026020010151908060018154018082558091505060019003906000526020600020906009020160009091909190915060008201518160000190816102d59190611fcc565b5060208201518160010190816102eb9190611fcc565b5060408201518160020190816103019190611fcc565b5060608201518160030190816103179190611fcc565b506080820151816004015560a0820151816005015560c0820151816006015560e08201518160070155610100820151816008015550508080610358906120fc565b91505061026f565b50815181600a018190555060028790806001815401808255809150506001900390600052602060002001600090919091909150908161039f9190611fcc565b50600160008154809291906103b3906120fc565b91905055507f48d2eeae27e9e508f7e8551b4f6c21dc4bf2b48e6a049f993c5e20051e9f13e28b8b8b8b8b8b8b8b8b6040516103f79998979695949392919061217d565b60405180910390a15050505050505050505050565b6060600060015467ffffffffffffffff81111561042c5761042b61118c565b5b60405190808252806020026020018201604052801561046557816020015b610452611103565b81526020019060019003908161044a5790505b50905060005b600280549050811015610ad65760006002828154811061048e5761048d61209e565b5b906000526020600020016040516104a591906122b0565b9081526020016040518091039020604051806101600160405290816000820180546104cf90611d83565b80601f01602080910402602001604051908101604052809291908181526020018280546104fb90611d83565b80156105485780601f1061051d57610100808354040283529160200191610548565b820191906000526020600020905b81548152906001019060200180831161052b57829003601f168201915b5050505050815260200160018201805461056190611d83565b80601f016020809104026020016040519081016040528092919081815260200182805461058d90611d83565b80156105da5780601f106105af576101008083540402835291602001916105da565b820191906000526020600020905b8154815290600101906020018083116105bd57829003601f168201915b505050505081526020016002820180546105f390611d83565b80601f016020809104026020016040519081016040528092919081815260200182805461061f90611d83565b801561066c5780601f106106415761010080835404028352916020019161066c565b820191906000526020600020905b81548152906001019060200180831161064f57829003601f168201915b5050505050815260200160038201805461068590611d83565b80601f01602080910402602001604051908101604052809291908181526020018280546106b190611d83565b80156106fe5780601f106106d3576101008083540402835291602001916106fe565b820191906000526020600020905b8154815290600101906020018083116106e157829003601f168201915b5050505050815260200160048201805461071790611d83565b80601f016020809104026020016040519081016040528092919081815260200182805461074390611d83565b80156107905780601f1061076557610100808354040283529160200191610790565b820191906000526020600020905b81548152906001019060200180831161077357829003601f168201915b505050505081526020016005820154815260200160068201548152602001600782015481526020016008820154815260200160098201805480602002602001604051908101604052809291908181526020016000905b82821015610a9357838290600052602060002090600902016040518061012001604052908160008201805461081a90611d83565b80601f016020809104026020016040519081016040528092919081815260200182805461084690611d83565b80156108935780601f1061086857610100808354040283529160200191610893565b820191906000526020600020905b81548152906001019060200180831161087657829003601f168201915b505050505081526020016001820180546108ac90611d83565b80601f01602080910402602001604051908101604052809291908181526020018280546108d890611d83565b80156109255780601f106108fa57610100808354040283529160200191610925565b820191906000526020600020905b81548152906001019060200180831161090857829003601f168201915b5050505050815260200160028201805461093e90611d83565b80601f016020809104026020016040519081016040528092919081815260200182805461096a90611d83565b80156109b75780601f1061098c576101008083540402835291602001916109b7565b820191906000526020600020905b81548152906001019060200180831161099a57829003601f168201915b505050505081526020016003820180546109d090611d83565b80601f01602080910402602001604051908101604052809291908181526020018280546109fc90611d83565b8015610a495780601f10610a1e57610100808354040283529160200191610a49565b820191906000526020600020905b815481529060010190602001808311610a2c57829003601f168201915b5050505050815260200160048201548152602001600582015481526020016006820154815260200160078201548152602001600882015481525050815260200190600101906107e6565b505050508152602001600a82015481525050828281518110610ab857610ab761209e565b5b60200260200101819052508080610ace906120fc565b91505061046b565b508091505090565b610ae6611103565b600082604051610af69190611d3d565b908152602001604051809103902060405180610160016040529081600082018054610b2090611d83565b80601f0160208091040260200160405190810160405280929190818152602001828054610b4c90611d83565b8015610b995780601f10610b6e57610100808354040283529160200191610b99565b820191906000526020600020905b815481529060010190602001808311610b7c57829003601f168201915b50505050508152602001600182018054610bb290611d83565b80601f0160208091040260200160405190810160405280929190818152602001828054610bde90611d83565b8015610c2b5780601f10610c0057610100808354040283529160200191610c2b565b820191906000526020600020905b815481529060010190602001808311610c0e57829003601f168201915b50505050508152602001600282018054610c4490611d83565b80601f0160208091040260200160405190810160405280929190818152602001828054610c7090611d83565b8015610cbd5780601f10610c9257610100808354040283529160200191610cbd565b820191906000526020600020905b815481529060010190602001808311610ca057829003601f168201915b50505050508152602001600382018054610cd690611d83565b80601f0160208091040260200160405190810160405280929190818152602001828054610d0290611d83565b8015610d4f5780601f10610d2457610100808354040283529160200191610d4f565b820191906000526020600020905b815481529060010190602001808311610d3257829003601f168201915b50505050508152602001600482018054610d6890611d83565b80601f0160208091040260200160405190810160405280929190818152602001828054610d9490611d83565b8015610de15780601f10610db657610100808354040283529160200191610de1565b820191906000526020600020905b815481529060010190602001808311610dc457829003601f168201915b505050505081526020016005820154815260200160068201548152602001600782015481526020016008820154815260200160098201805480602002602001604051908101604052809291908181526020016000905b828210156110e4578382906000526020600020906009020160405180610120016040529081600082018054610e6b90611d83565b80601f0160208091040260200160405190810160405280929190818152602001828054610e9790611d83565b8015610ee45780601f10610eb957610100808354040283529160200191610ee4565b820191906000526020600020905b815481529060010190602001808311610ec757829003601f168201915b50505050508152602001600182018054610efd90611d83565b80601f0160208091040260200160405190810160405280929190818152602001828054610f2990611d83565b8015610f765780601f10610f4b57610100808354040283529160200191610f76565b820191906000526020600020905b815481529060010190602001808311610f5957829003601f168201915b50505050508152602001600282018054610f8f90611d83565b80601f0160208091040260200160405190810160405280929190818152602001828054610fbb90611d83565b80156110085780601f10610fdd57610100808354040283529160200191611008565b820191906000526020600020905b815481529060010190602001808311610feb57829003601f168201915b5050505050815260200160038201805461102190611d83565b80601f016020809104026020016040519081016040528092919081815260200182805461104d90611d83565b801561109a5780601f1061106f5761010080835404028352916020019161109a565b820191906000526020600020905b81548152906001019060200180831161107d57829003601f168201915b505050505081526020016004820154815260200160058201548152602001600682015481526020016007820154815260200160088201548152505081526020019060010190610e37565b505050508152602001600a820154815250509050919050565b60015481565b60405180610160016040528060608152602001606081526020016060815260200160608152602001606081526020016000815260200160008152602001600081526020016000815260200160608152602001600081525090565b6000604051905090565b600080fd5b600080fd5b600080fd5b600080fd5b6000601f19601f8301169050919050565b7f4e487b7100000000000000000000000000000000000000000000000000000000600052604160045260246000fd5b6111c48261117b565b810181811067ffffffffffffffff821117156111e3576111e261118c565b5b80604052505050565b60006111f661115d565b905061120282826111bb565b919050565b600067ffffffffffffffff8211156112225761122161118c565b5b61122b8261117b565b9050602081019050919050565b82818337600083830152505050565b600061125a61125584611207565b6111ec565b90508281526020810184848401111561127657611275611176565b5b611281848285611238565b509392505050565b600082601f83011261129e5761129d611171565b5b81356112ae848260208601611247565b91505092915050565b6000819050919050565b6112ca816112b7565b81146112d557600080fd5b50565b6000813590506112e7816112c1565b92915050565b600067ffffffffffffffff8211156113085761130761118c565b5b602082029050602081019050919050565b600080fd5b600080fd5b600080fd5b6000610120828403121561133f5761133e61131e565b5b61134a6101206111ec565b9050600082013567ffffffffffffffff81111561136a57611369611323565b5b61137684828501611289565b600083015250602082013567ffffffffffffffff81111561139a57611399611323565b5b6113a684828501611289565b602083015250604082013567ffffffffffffffff8111156113ca576113c9611323565b5b6113d684828501611289565b604083015250606082013567ffffffffffffffff8111156113fa576113f9611323565b5b61140684828501611289565b606083015250608061141a848285016112d8565b60808301525060a061142e848285016112d8565b60a08301525060c0611442848285016112d8565b60c08301525060e0611456848285016112d8565b60e08301525061010061146b848285016112d8565b6101008301525092915050565b600061148b611486846112ed565b6111ec565b905080838252602082019050602084028301858111156114ae576114ad611319565b5b835b818110156114f557803567ffffffffffffffff8111156114d3576114d2611171565b5b8086016114e08982611328565b855260208501945050506020810190506114b0565b5050509392505050565b600082601f83011261151457611513611171565b5b8135611524848260208601611478565b91505092915050565b6000806000806000806000806000806101408b8d03121561155157611550611167565b5b60008b013567ffffffffffffffff81111561156f5761156e61116c565b5b61157b8d828e01611289565b9a505060208b013567ffffffffffffffff81111561159c5761159b61116c565b5b6115a88d828e01611289565b99505060408b013567ffffffffffffffff8111156115c9576115c861116c565b5b6115d58d828e01611289565b98505060608b013567ffffffffffffffff8111156115f6576115f561116c565b5b6116028d828e01611289565b97505060808b013567ffffffffffffffff8111156116235761162261116c565b5b61162f8d828e01611289565b96505060a06116408d828e016112d8565b95505060c06116518d828e016112d8565b94505060e06116628d828e016112d8565b9350506101006116748d828e016112d8565b9250506101208b013567ffffffffffffffff8111156116965761169561116c565b5b6116a28d828e016114ff565b9150509295989b9194979a5092959850565b600081519050919050565b600082825260208201905092915050565b6000819050602082019050919050565b600081519050919050565b600082825260208201905092915050565b60005b8381101561171a5780820151818401526020810190506116ff565b83811115611729576000848401525b50505050565b600061173a826116e0565b61174481856116eb565b93506117548185602086016116fc565b61175d8161117b565b840191505092915050565b611771816112b7565b82525050565b600081519050919050565b600082825260208201905092915050565b6000819050602082019050919050565b60006101208301600083015184820360008601526117c1828261172f565b915050602083015184820360208601526117db828261172f565b915050604083015184820360408601526117f5828261172f565b9150506060830151848203606086015261180f828261172f565b91505060808301516118246080860182611768565b5060a083015161183760a0860182611768565b5060c083015161184a60c0860182611768565b5060e083015161185d60e0860182611768565b50610100830151611872610100860182611768565b508091505092915050565b600061188983836117a3565b905092915050565b6000602082019050919050565b60006118a982611777565b6118b38185611782565b9350836020820285016118c585611793565b8060005b8581101561190157848403895281516118e2858261187d565b94506118ed83611891565b925060208a019950506001810190506118c9565b50829750879550505050505092915050565b6000610160830160008301518482036000860152611931828261172f565b9150506020830151848203602086015261194b828261172f565b91505060408301518482036040860152611965828261172f565b9150506060830151848203606086015261197f828261172f565b91505060808301518482036080860152611999828261172f565b91505060a08301516119ae60a0860182611768565b5060c08301516119c160c0860182611768565b5060e08301516119d460e0860182611768565b506101008301516119e9610100860182611768565b50610120830151848203610120860152611a03828261189e565b915050610140830151611a1a610140860182611768565b508091505092915050565b6000611a318383611913565b905092915050565b6000602082019050919050565b6000611a51826116b4565b611a5b81856116bf565b935083602082028501611a6d856116d0565b8060005b85811015611aa95784840389528151611a8a8582611a25565b9450611a9583611a39565b925060208a01995050600181019050611a71565b50829750879550505050505092915050565b60006020820190508181036000830152611ad58184611a46565b905092915050565b600060208284031215611af357611af2611167565b5b600082013567ffffffffffffffff811115611b1157611b1061116c565b5b611b1d84828501611289565b91505092915050565b6000610160830160008301518482036000860152611b44828261172f565b91505060208301518482036020860152611b5e828261172f565b91505060408301518482036040860152611b78828261172f565b91505060608301518482036060860152611b92828261172f565b91505060808301518482036080860152611bac828261172f565b91505060a0830151611bc160a0860182611768565b5060c0830151611bd460c0860182611768565b5060e0830151611be760e0860182611768565b50610100830151611bfc610100860182611768565b50610120830151848203610120860152611c16828261189e565b915050610140830151611c2d610140860182611768565b508091505092915050565b60006020820190508181036000830152611c528184611b26565b905092915050565b611c63816112b7565b82525050565b6000602082019050611c7e6000830184611c5a565b92915050565b600082825260208201905092915050565b7f4b434420646f6573206e6f74206d617463680000000000000000000000000000600082015250565b6000611ccb601283611c84565b9150611cd682611c95565b602082019050919050565b60006020820190508181036000830152611cfa81611cbe565b9050919050565b600081905092915050565b6000611d17826116e0565b611d218185611d01565b9350611d318185602086016116fc565b80840191505092915050565b6000611d498284611d0c565b915081905092915050565b7f4e487b7100000000000000000000000000000000000000000000000000000000600052602260045260246000fd5b60006002820490506001821680611d9b57607f821691505b602082108103611dae57611dad611d54565b5b50919050565b7f52656365697074206e756d62657220616c726561647920657869737473000000600082015250565b6000611dea601d83611c84565b9150611df582611db4565b602082019050919050565b60006020820190508181036000830152611e1981611ddd565b9050919050565b60008190508160005260206000209050919050565b60006020601f8301049050919050565b600082821b905092915050565b600060088302611e827fffffffffffffffffffffffffffffffffffffffffffffffffffffffffffffffff82611e45565b611e8c8683611e45565b95508019841693508086168417925050509392505050565b6000819050919050565b6000611ec9611ec4611ebf846112b7565b611ea4565b6112b7565b9050919050565b6000819050919050565b611ee383611eae565b611ef7611eef82611ed0565b848454611e52565b825550505050565b600090565b611f0c611eff565b611f17818484611eda565b505050565b5b81811015611f3b57611f30600082611f04565b600181019050611f1d565b5050565b601f821115611f8057611f5181611e20565b611f5a84611e35565b81016020851015611f69578190505b611f7d611f7585611e35565b830182611f1c565b50505b505050565b600082821c905092915050565b6000611fa360001984600802611f85565b1980831691505092915050565b6000611fbc8383611f92565b9150826002028217905092915050565b611fd5826116e0565b67ffffffffffffffff811115611fee57611fed61118c565b5b611ff88254611d83565b612003828285611f3f565b600060209050601f8311600181146120365760008415612024578287015190505b61202e8582611fb0565b865550612096565b601f19841661204486611e20565b60005b8281101561206c57848901518255600182019150602085019450602081019050612047565b868310156120895784890151612085601f891682611f92565b8355505b6001600288020188555050505b505050505050565b7f4e487b7100000000000000000000000000000000000000000000000000000000600052603260045260246000fd5b7f4e487b7100000000000000000000000000000000000000000000000000000000600052601160045260246000fd5b6000612107826112b7565b91507fffffffffffffffffffffffffffffffffffffffffffffffffffffffffffffffff8203612139576121386120cd565b5b600182019050919050565b600061214f826116e0565b6121598185611c84565b93506121698185602086016116fc565b6121728161117b565b840191505092915050565b6000610120820190508181036000830152612198818c612144565b905081810360208301526121ac818b612144565b905081810360408301526121c0818a612144565b905081810360608301526121d48189612144565b905081810360808301526121e88188612144565b90506121f760a0830187611c5a565b61220460c0830186611c5a565b61221160e0830185611c5a565b61221f610100830184611c5a565b9a9950505050505050505050565b6000815461223a81611d83565b6122448186611d01565b9450600182166000811461225f5760018114612274576122a7565b60ff19831686528115158202860193506122a7565b61227d85611e20565b60005b8381101561229f57815481890152600182019150602081019050612280565b838801955050505b50505092915050565b60006122bc828461222d565b91508190509291505056fea2646970667358221220f7e0051c95a1367c19da60b2a4f675f72569b05dd8c5be5177d440f4fff00ac964736f6c634300080f0033",
  "immutableReferences": {},
  "source": "// SPDX-License-Identifier: MIT\npragma solidity ^0.8.15;\n\ncontract MedicalRecord {\n    struct TreatmentDetail {\n        string category;\n        string date;\n        string treatCode;\n        string description;\n        uint256 price;\n        uint256 oop;\n        uint256 pcc;\n        uint256 foop;\n        uint256 nonReimbursement;\n    }\n\n    struct MedicalRecordData {\n        string name;\n        string RRN;\n        string KCD;\n        string date;\n        string receiptNumber;\n        uint256 totalOop;\n        uint256 totalPcc;\n        uint256 totalFoop;\n        uint256 nonReimbursement;\n        TreatmentDetail[] treatDetails;\n        uint256 treatDetailsCount;\n    }\n\n    // attribute\n    string private constant DEFAULT_KCD = \"J09\"; //  RRN \n    mapping(string => MedicalRecordData) private medicalRecords;\n    uint256 public medicalRecordsCount;\n    string[] private medicalRecordKeys; \n    \n    // event\n    event MedicalRecordSet(\n        string name,\n        string RRN,\n        string KCD,\n        string date,\n        string receiptNumber,\n        uint256 totalOop,\n        uint256 totalPcc,\n        uint256 totalFoop,\n        uint256 nonReimbursement\n    );\n\n    //    \n    function addMedicalRecord(\n        string memory _name,\n        string memory _RRN,\n        string memory _KCD,\n        string memory _date,\n        string memory _receiptNumber,\n        uint256 _totalOop,\n        uint256 _totalPcc,\n        uint256 _totalFoop,\n        uint256 _nonReimbursement,\n        TreatmentDetail[] memory _treatDetails\n    ) public {\n        require(keccak256(bytes(_KCD)) == keccak256(bytes(DEFAULT_KCD)), \"KCD does not match\");\n        require(bytes(medicalRecords[_receiptNumber].name).length == 0, \"Receipt number already exists\");\n\n        MedicalRecordData storage record = medicalRecords[_receiptNumber];\n        record.name = _name;\n        record.RRN = _RRN;\n        record.KCD = _KCD;\n        record.date = _date;\n        record.receiptNumber = _receiptNumber;\n        record.totalOop = _totalOop;\n        record.totalPcc = _totalPcc;\n        record.totalFoop = _totalFoop;\n        record.nonReimbursement = _nonReimbursement;\n\n        for (uint256 i = 0; i < _treatDetails.length; i++) {\n            record.treatDetails.push(_treatDetails[i]);\n        }\n        record.treatDetailsCount = _treatDetails.length;\n        \n        // getter \n\t\t\t\tmedicalRecordKeys.push(_receiptNumber);\n\t\t\t\tmedicalRecordsCount++;\n        \n        emit MedicalRecordSet(_name, _RRN, _KCD, _date, _receiptNumber, _totalOop, _totalPcc, _totalFoop, _nonReimbursement);\n    }\n  \n\n    function getMedicalRecord(string memory _receiptNumber) public view returns (MedicalRecordData memory) {\n        return medicalRecords[_receiptNumber];\n    }\n    \n    function getMedicalRecords() public view returns (MedicalRecordData[] memory){\n\t\t    MedicalRecordData[] memory records = new MedicalRecordData[](medicalRecordsCount);\n\t\t\t\tfor (uint256 i = 0; i < medicalRecordKeys.length; i++) {\n\t\t\t\t\t\trecords[i] = medicalRecords[medicalRecordKeys[i]];\n\t\t\t\t}\n\t\t\t\treturn records;\n    }\n}\n\n",
  "sourcePath": "/home/wkdcodms127/truf/contracts/MedicalRecord.sol",
  "compiler": {
    "name": "solc",
    "version": "0.8.15+commit.e14f2714.Emscripten.clang"
  },
  "schemaVersion": "3.4.8",
  "updatedAt": "2024-04-18T04:36:10.146Z",
  "networkType": "ethereum",
  "devdoc": {
    "kind": "dev",
    "methods": {},
    "version": 1
  },
  "userdoc": {
    "kind": "user",
    "methods": {},
    "version": 1
  }
}